:020000040000FA
:100000000C946A010C94C8110C949D110C947211FB
:100010000C9447110C941C110C94F1100C94C61004
:100020000C949B100C949B010C949B010C949B01D1
:100030000C949B010C949B010C949B010C949B01D0
:100040000C949B010C949B010C949B010C949B01C0
:100050000C949B010C949B010C949B010C945110EB
:100060000C949B010C941B100C94F10F0C949B01AD
:100070000C949B010C949B010C949B010C949B0190
:100080000C949B010C949B010C949B010C949B0180
:100090000C949B010C949B010C949B010C949B0170
:1000A0000C949B010C949B010C949B010C949B0160
:1000B0000C949B010C949B010C949B010C949B0150
:1000C0000C949B010C949B010C949B010C949B0140
:1000D0000C949B010C949B010C949B010C949B0130
:1000E0000C949B0105A84CCDB2D44EB93836A90268
:1000F0000C50B9918688083CA6AAAA2ABE00000026
:10010000803F0C942B040C946B030C9435030C94DB
:100110008B030C9472040C9479030C949A040C9441
:1001200058030C9417040C9445040C94AB010C94E4
:1001300059040C9473030C9481030C9465030C9480
:1001400028150C9468040C943A030C9450030C94F6
:10015000FE010C947D030C94B4020C9421040C94C5
:1001600090040C9400040C9461030C942F020C94E2
:100170004F040C9433040C9467020C94D1010C943A
:100180000D040C943B040C9454030C9486040C94BE
:100190005B030C940D020C946F030C944C030C94B1
:1001A00087030C94D0010C947C040C9421020C94D1
:1001B0000804000020002300260029002C002F0046
:1001C00032000001000003010601090100002100C6
:1001D000240027002A002D00300033000101000018
:1001E000040107010A0100002200250028002B005D
:1001F0002E003100340002010000050108010B014E
:1002000005050505070508080808020202020A0A92
:1002100008080404040401010101010101010303B0
:10022000030303030303040707070C0C0C0C0C0C5B
:100230000C0C0202020206060606060606060B0B58
:100240000B0B0B0B0B0B0102102020080810204099
:10025000102040800201020108040201010204088A
:100260001020408080402010080402018004020118
:100270008040201008040201080402010102040861
:1002800010204080010204081020408000000A0B6A
:1002900002090C0D0E080703040100000000000015
:1002A000000000000000000000000000000000004E
:1002B000000000000000000012111000000000000B
:1002C000000000000000000000000000000000002E
:1002D0000000281511241FBECFEFD1E2DEBFCDBF35
:1002E00000E00CBF13E0A0E0B2E0EAE6F3E300E0D8
:1002F0000BBF02C007900D92AE3BB107D9F727E0C4
:10030000AEEBB3E001C01D92A935B207E1F711E0F1
:10031000CAE6D1E000E006C021970109802FFE0166
:100320000E946318C936D10780E00807A9F70E9428
:1003300038120C94B3190C9400008BEA91E090935E
:10034000050280930402EAE6F0E080818C7F816000
:100350008083EC9A089580918F0590919005A091EB
:100360009105B09192050196A11DB11D80938F0555
:1003700090939005A0939105B093920580918D057F
:1003800090918E05019690938E0580938D0508952A
:10039000EC9880ED91E0909305028093040208951B
:1003A0000895AF92BF92CF92DF92EF92FF920F9398
:1003B0001F93CF93DF936C017B018B01040F151FFB
:1003C000EB015E01AE18BF08C017D10759F0699163
:1003D000D601ED91FC910190F081E02DC6011995B7
:1003E000892B79F7C501DF91CF911F910F91FF9074
:1003F000EF90DF90CF90BF90AF900895FC01538DA8
:10040000448D252F30E0842F90E0821B930B5417EE
:1004100010F0CF96089501970895FC01918D828D7B
:10042000981761F0A28DAE0FBF2FB11D5D968C9114
:10043000928D9F5F9F73928F90E008958FEF9FEF53
:100440000895FC01918D828D981731F0828DE80F0F
:10045000F11D858D90E008958FEF9FEF0895FC01C9
:10046000918D228D892F90E0805C9F4F821B910996
:100470008F739927089588EB96E00E942F0221E060
:10048000892B09F420E0822F0895FC01A48DA80F88
:10049000B92FB11DA35ABF4F2C91848D90E00196C6
:1004A0008F739927848FA689B7892C93A089B189E6
:1004B0008C91837080648C93938D848D981306C087
:1004C0000288F389E02D80818F7D80830895EF92EB
:1004D000FF920F931F93CF93DF93EC0181E0888FFE
:1004E0009B8D8C8D98131AC0E889F989808185FFCE
:1004F00015C09FB7F894EE89FF896083E889F98970
:1005000080818370806480839FBF81E090E0DF9171
:10051000CF911F910F91FF90EF900895F62E0B8DC4
:1005200010E00F5F1F4F0F731127E02E8C8D8E117F
:100530000CC00FB607FCFACFE889F989808185FFE6
:10054000F5CFCE010E944502F1CFEB8DEC0FFD2FD0
:10055000F11DE35AFF4FF0829FB7F8940B8FEA89A1
:10056000FB8980818062CFCFCF93DF93EC01888DB0
:100570008823B9F0AA89BB89E889F9898C9185FD1E
:1005800003C0808186FD0DC00FB607FCF7CF8C91AC
:1005900085FFF2CF808185FFEDCFCE010E9445021D
:1005A000E9CFDF91CF91089580E090E0892B29F089
:1005B0000E943B0281110E94000080E090E0892BA4
:1005C00049F080E090E0892B29F00E940000811121
:1005D0000E94000080E090E0892B49F080E090E0EC
:1005E000892B29F00E94000081110E94000080E008
:1005F00090E0892B49F080E090E0892B29F00E945F
:10060000000081110C9400000895282F30E0F901BA
:10061000E457FD4F9491F901EA5BFD4F449120505E
:100620003E4FF9012491222309F435C0992311F199
:1006300091509231F8F4E92FF0E08827ED5DFC4FFE
:100640008F4F0C9463185403580335034C03500325
:100650003A035B03610365036B036F037303790361
:100660007D033A03810387038B03809180008F779A
:1006700080938000E22FF0E0EE0FFF1FEA51FE4F63
:10068000A591B4918FB7F894EC91611148C0409551
:100690004E234C938FBF0895809180008F7DE8CFCB
:1006A00080918000877FE4CF84B58F7784BDE2CFCF
:1006B00084B58F7DFBCF8091B0008F778093B000A1
:1006C000D9CF8091B0008F7DF9CF809190008F7746
:1006D00080939000CFCF809190008F7DF9CF809153
:1006E0009000877FF5CF8091A0008F778093A00046
:1006F000C1CF8091A0008F7DF9CF8091A000877F2E
:10070000F5CF809120018F7780932001B3CF809126
:1007100020018F7DF9CF80912001877FF5CF4E2B6F
:10072000B8CFCF93DF9390E0FC01EA5BFD4F2491BB
:1007300080509E4FFC0184918823C9F090E0880F7F
:10074000991FFC01E453FE4FA591B491FC01EA51BD
:10075000FE4FC591D49161110DC09FB7F8948C9153
:10076000209582238C938881282328839FBFDF9143
:10077000CF910895623051F49FB7F8943C91822F45
:10078000809583238C93E8812E2BEFCF8FB7F8943D
:10079000EC912E2B2C938FBFEACF1F93CF93DF9337
:1007A000182FEB0161E00E949103209739F460E07B
:1007B000812FDF91CF911F910C940503E12FF0E081
:1007C000E457FD4FE491E150E23108F0B3C0F0E0AE
:1007D0008827E251FC4F8F4F0C94631800040804E3
:1007E0000D04170421049A042B0433043B0445042C
:1007F0004F045904680472049A047C04860490042B
:1008000084B5806884BDC7BDDF91CF911F910895E5
:1008100084B5806284BDC8BDF7CF809180008068B8
:1008200080938000D0938900C0938800EDCF8091A1
:100830008000806280938000D0938B00C0938A00F8
:10084000E3CF80918000886080938000D0938D00FA
:10085000C0938C00D9CF8091B00080688093B000A5
:10086000C093B300D1CF8091B00080628093B0007C
:10087000C093B400C9CF80919000806880939000AD
:10088000D0939900C0939800BFCF80919000806270
:1008900080939000D0939B00C0939A00B5CF809135
:1008A0009000886080939000D0939D00C0939C003E
:1008B000ABCF8091A00080688093A0008091A000C1
:1008C0008F7B8093A000D093A900C093A8009CCFF9
:1008D0008091A00080628093A000D093AB00C09371
:1008E000AA0092CF8091A00088608093A000D0934E
:1008F000AD00C093AC0088CF8091200180688093C8
:100900002001D0932901C09328017ECF809120013E
:10091000806280932001D0932B01C0932A0174CF71
:1009200080912001886080932001D0932D01C09395
:100930002C016ACFC038D1050CF439CF61E038CF33
:100940002FB7F894609198057091990580919A0558
:1009500090919B052FBF08950F931F93CF93DF9323
:100960008C010E94A0040E94C80110928E05109272
:100970008D050E949D01D0E0C0E080919C05909182
:100980009D05C817D907A4F50130110519F561E0D7
:1009900087E00E94050360E086E00E94050360E0B6
:1009A00085E00E94050361E084E00E94050366E99A
:1009B00070E08AE00E94CD0366E970E089E00E9461
:1009C000CD030E94C801C0918D05D0918E050E9473
:1009D0009D01D3CF60E087E00E94050361E086E0DF
:1009E0000E94050361E085E00E94050360E0DCCF22
:1009F00061E087E00E94050361E086E00E94050354
:100A000061E085E00E94050361E084E00E94050347
:100A100070E060E08AE00E94CD0370E060E089E071
:100A20000E94CD030E94C80110928E0510928D0580
:100A3000DF91CF911F910F910C949D0124EE3BEC1F
:100A400046E951E40E94CC1520E030E040E252E457
:100A50000E946A170E943E1670939D0560939C0544
:100A60000895CF92DF92EF92FF920F931F93CF934F
:100A7000DF9300D01F921F92CDB7DEB76C017B01D0
:100A80001A832B832A813B813370C90168E170E0AE
:100A90000E942D18F601E61BF70B1E161F061CF010
:100AA000FB01EC19FD09C90168E170E00E942D18F5
:100AB0009701281B390B121613061CF09C012E19E6
:100AC0003F09CF01820F931F0F900F900F900F904F
:100AD0000F90DF91CF911F910F91FF90EF90DF90DA
:100AE000CF900895489738F46F3F760721F081E062
:100AF0006831710509F480E090E00895CF93DF93A9
:100B000000D01F921F92CDB7DEB749835A836B8303
:100B10007C838D8380910002909101028A3591053A
:100B2000E1F00196909301028093000225E0289F56
:100B3000D001299FB00D1124A553BC4FFE01319661
:100B400001900D922A95E1F781E00F900F900F90A0
:100B50000F900F90DF91CF91089580E0F6CF209114
:100B60000002309101022F3F3207C9F045E0429F59
:100B7000F001439FF00D1124E553FC4F4181528158
:100B8000DC0112965C934E93119740814C93215057
:100B90003109309301022093000281E0089580E042
:100BA00008956F927F928F929F92AF92BF92CF9251
:100BB000DF92EF92FF920F931F93CF93DF93CDB706
:100BC000DEB72F970FB6F894DEBF0FBECDBF8C01F6
:100BD0003F834887DC86ED868F819885937028E176
:100BE00030E0B9010E942D184B01FC018C859D85D8
:100BF0009370B9010E942D186B015C0178E7672E94
:100C0000A5E07A2EB8E1EB2EF12C8C149D0421F492
:100C1000EA15FB0509F448C0689CC001699C900D69
:100C200011244801880E991E7E9EC0017F9E900D62
:100C30001124880E991EF4014081518162817381D3
:100C400084810E947E05F40121813281F901F370D3
:100C5000CF01B7010E942D184B01232F330F330B07
:100C600025952595237033272115310531F0213045
:100C7000310569F481E0881A9108CF01B7010E941B
:100C80002D18FC012115310549F43196BECF2230D3
:100C9000310599F38FEF881A980AEFCF223031058A
:100CA00009F0B3CF3197B1CF28E7289DC001299D26
:100CB000900D1124080F191F25E02E9FC0012F9FB2
:100CC000900D1124F801E80FF91F408151816281D4
:100CD000738184810E947E05CE0101960E94AF053A
:100CE0000EE915E098E1E92EF12C2CE4B22E32E564
:100CF000A32E45E5942E54E4852EF801EE59F540D7
:100D000080910002909101020196C1F4E256FA4FDF
:100D100010822F960FB6F894DEBF0FBECDBFDF91C5
:100D2000CF911F910F91FF90EF90DF90CF90BF90E8
:100D3000AF909F908F907F906F900895CE01019615
:100D40000E94AF052A813B81690183E0D822C60158
:100D5000B7010E942D18232F330F330B25952595AE
:100D600023703327CB012115310521F021303105C6
:100D7000D1F40197FB01E81BF90BC601B7010E94F2
:100D80002D1821153105A1F49C012F5F3F4F821BC7
:100D9000930BE130F105A9F4892B11F5F80180825C
:100DA0000F5F1F4FAACF2230310521F30196E2CF0A
:100DB0002230310521F49C0121503109E8CF9C01FA
:100DC000E6CFEF3FFE0729F4892B51F4F80190821A
:100DD000E7CFEF2B29F4019719F4F801A082E0CFB7
:100DE000F801B082DDCF50E028E1629F400D511D37
:100DF00011249A0163E0359527956A95E1F7820FF2
:100E0000911DFC01808190E04770552702C09595A7
:100E100087954A95E2F781700895FC01218132811E
:100E200022273C7FA8E1A69FF001A79FF00D112487
:100E30004E0F5F1F422B532BFC01528341830895B9
:100E40008F929F92AF92BF92CF92DF92EF92FF92DA
:100E50006C010E94A0044B01770FAA08BB080D2C5F
:100E6000000CEE08FF080E94A004681979098A099D
:100E70009B096C157D058E059F05A8F3FF90EF90EB
:100E8000DF90CF90BF90AF909F908F900895FC011E
:100E900001900020E9F73197AF01481B590BBC01C5
:100EA00088EB96E00C94D1018F929F92AF92BF9203
:100EB0000F931F93CF93DF93CDB7DEB7A1970FB6F4
:100EC000F894DEBF0FBECDBF19A2423008F44AE04D
:100ED0008E010F5D1F4F842E912CB12CA12CA501EA
:100EE00094010E944118E62FB901CA01EA30F4F4D6
:100EF000E05DD801EE938D01232B242B252B79F770
:100F000090E080E0109719F0CD010E944707A1966C
:100F10000FB6F894DEBF0FBECDBFDF91CF911F910A
:100F20000F91BF90AF909F908F900895E95CE1CFB3
:100F30000C944707CF93DF930E944707EC0182E3AD
:100F400092E00E9447078C0F9D1FDF91CF9108957B
:100F500085E392E00E949A0760E070E084E192E409
:100F60000E941E058FEF9FEF0C94AC0486E492E084
:100F70000E949A0760E070E084E192E40E941E05FE
:100F800081E090E00C94AC04CF93DF9386E592E08F
:100F90000E949A0760E070E080E291E40E941E05E2
:100FA0000E94A0040E94C80110928E0510928D0527
:100FB0000E949D01D0E0C0E080919C0590919D052C
:100FC00061E0C817D90714F587E00E94050360E0C7
:100FD00086E00E94050361E085E00E94050360E071
:100FE00084E00E94050366E970E08AE00E94CD0378
:100FF00066E970E089E00E94CD030E94C801C091BB
:101000008D05D0918E050E949D01D6CF87E00E946C
:10101000050361E086E00E94050361E085E00E942F
:10102000050361E084E00E94050370E060E08AE06F
:101030000E94CD0370E060E089E00E94CD030E9431
:10104000C80110928E0510928D05DF91CF910C94FE
:101050009D01CF92DF92EF92FF92CF93DF936C01CD
:10106000990FEE08FF08F7FE19C06DE288EB96E0D5
:101070000E946702EC0166277727CB016C197D0976
:101080008E099F094AE00E9454078C0F9D1FDF9133
:10109000CF91FF90EF90DF90CF9008954AE0C70185
:1010A000B601DF91CF91FF90EF90DF90CF900C943D
:1010B0005407CF92DF92EF92FF921F93CF93DF936B
:1010C0007C016B01142FDC01CD91DC9165E070E0B7
:1010D00081E090E00E946B18FC01D282C1821083F3
:1010E00014821382209759F4D701ED93FC93DF917A
:1010F000CF911F91FF90EF90DF90CF90089588815E
:10110000181720F4D483C383EFCFED01AB81BC81EA
:10111000109719F08C911817C0F7B483A383FC8340
:10112000EB83E5CF2F923F924F925F926F927F9227
:101130008F929F92AF92BF92CF92DF92EF92FF92E7
:101140000F931F93CF93DF93CDB7DEB7C859DB4022
:101150000FB6F894DEBF0FBECDBFC357D44F488340
:10116000CD58DB40C257D44F5883CE58DB40C157CF
:10117000D44F6883CF58DB40C057D44F7883C059D1
:10118000DB40CF56D44F8883C159DB40CE56D44F75
:10119000E882C259DB40CD56D44FF882C359DB40B8
:1011A000CC56D44F0883C459DB40CB56D44F188358
:1011B000C559DB40CA56D44F2883C659DB40C257B5
:1011C000D44FA880B980CE58DB40C501937008E1A8
:1011D00010E0B8010E942D187B016C01BC01C70111
:1011E0000E947205892B91F0CD56D44F8881998148
:1011F000C359DB409370B8010E942D182B011C01CC
:10120000BC01C2010E947205892B29F489E692E093
:101210000E949A072BC1422D642D80E796E00E9420
:10122000F306811103C084E892E0F2CFE414F504E0
:1012300029F48AEA92E0C214D30451F3C357D44F7D
:101240009880CD58DB409E012F5B344FC956D44F58
:1012500039832883C759DB408AE4F90111928A95C2
:10126000E9F7CE0101963C0148EEFC0130E020E0B8
:10127000408312821182148213822F5F3F4F359672
:1012800028313105A9F788589F4FC956D44F288176
:101290003981C759DB408217930739F7CE56D44FAF
:1012A0000881C259DB40CD56D44F1881C359DB4069
:1012B000CC56D44F2881C459DB40CB56D44F38810B
:1012C000C559DB40CA56D44F4881C659DB40B601E8
:1012D000C7010E94310595E09C9DF0019D9DF00D98
:1012E000112498E79E9D90019F9D300D1124E20FDF
:1012F000F31FE60DF71D8083A601B701CF010E9401
:101300000D0765E070E081E090E00E946B18FC0141
:10131000B282A182908214821382DE01A557B44F5B
:101320008D939C93C557D44F88819981CB58DB40CE
:10133000009709F43FC3FC010181128123813481AC
:10134000C557D44F39832883CB58DB400E942319DB
:10135000C801937068E170E00E942D187B016C0158
:10136000F8E1F69FC001F79F900D11248C0D9D1D93
:10137000FC0123E0F595E7952A95E1F721E43BE0B0
:101380002C0F3D1FE20FF31F8770992721E030E0FB
:1013900001C0220F8A95EAF78081822B80834B015E
:1013A00031E0831A9108B601C4010E9472050197C9
:1013B00009F0F9C04814590409F072C02C143D0416
:1013C00009F06EC085E0829D8001839D100D11247F
:1013D00028E7249DC001259D900D1124080F191F99
:1013E000060D171DA101B201C8010E940D07F801E9
:1013F000818192819C60928381838DEC92E00E9436
:101400009A07C357D44FC880CD58DB40C257D44F3A
:10141000D880CE58DB40C157D44FE880CF58DB404E
:10142000C057D44FF880C059DB40CF56D44F088105
:10143000C159DB40CE56D44F2881C259DB40CD562E
:10144000D44F3881C359DB40CC56D44F4881C4595E
:10145000DB40CB56D44F5881C559DB40CA56D44FD8
:101460006881C659DB40C3010E94D105C856D44FDC
:101470000FB6F894DEBF0FBECDBFDF91CF911F91A5
:101480000F91FF90EF90DF90CF90BF90AF909F9023
:101490008F907F906F905F904F903F902F90089526
:1014A0004C2D6FEF6E0DCE018F5B944F0E94F306B3
:1014B000811179C04C2D682D80E796E00E94F306DB
:1014C000813009F070C0CE56D44F0881C259DB403C
:1014D000CD56D44F1881C359DB40CC56D44F288108
:1014E000C459DB40CB56D44F3881C559DB40CA566E
:1014F000D44F4881C659DB40B601C7010E9431056F
:101500005C01CC56D44F2881C459DB40CB56D44F14
:101510003881C559DB40CA56D44F4881C659DB4093
:10152000B601C4010E943105F5E0FC9D8001FD9DDE
:10153000100D112428E72E9DF0012F9DF00D112490
:10154000E00FF11FE60DF71D208130E0A9014A19D7
:101550005B095A015FEFA51AB50AA80EB91EE8E7A4
:10156000E89DC001E99D900D1124080F191F060D7B
:10157000171DF80180818A151B04A9F0A4F0A08230
:10158000818192819C6092838183A601B401C8010C
:101590000E940D07F801618172814A2DCE018557A5
:1015A000944F0E9459084701FFEF8F1A9F0AB60116
:1015B000C4010E947205019709F0A5C0481459049E
:1015C000F1F42C143D04D9F488E7849D8001859DB5
:1015D000100D112425E0229DC001239D900D1124A2
:1015E000080F191F060D171DA101B201C8010E94A5
:1015F0000D07F80181819281937F9460FCCE4C2D80
:1016000061E06E0DCE018F5B944F0E94F306811155
:101610007AC04C2D682D80E796E00E94F306813059
:1016200009F071C0CE56D44F0881C259DB40CD5667
:10163000D44F1881C359DB40CC56D44F2881C459AC
:10164000DB40CB56D44F3881C559DB40CA56D44F06
:101650004881C659DB40B601C7010E9431055C01D3
:10166000CC56D44F2881C459DB40CB56D44F388157
:10167000C559DB40CA56D44F4881C659DB40B60134
:10168000C4010E943105F5E0FC9D8001FD9D100D17
:10169000112428E72E9DF0012F9DF00D1124E00F5D
:1016A000F11FE60DF71D208130E0A9014A195B0901
:1016B0005A015FEFA51AB50AA80EB91EE8E7E89D22
:1016C000C001E99D900D1124080F191F060D171D6B
:1016D000F80180818A151B04B1F0ACF0A0828181F1
:1016E0009281937F946092838183A601B401C801A3
:1016F0000E940D07F801618172814A2DCE01855744
:10170000944F0E9459084601FFEF8F1A9F0AB401B7
:10171000C7010E947205019709F0A0C04E145F0432
:10172000F1F428143904D9F488E7849D8001859D5B
:10173000100D112425E0229DC001239D900D112440
:10174000080F191F060D171DA101B201C8010E9443
:101750000D07F80181819281937F98604CCE41E022
:101760004C0D6E2DCE018F5B944F0E94F3068111BC
:1017700075C0482D6E2D80E796E00E94F3068130FB
:1017800009F06CC0CE56D44F0881C259DB40CD560B
:10179000D44F1881C359DB40CC56D44F2881C4594B
:1017A000DB40CB56D44F3881C559DB40CA56D44FA5
:1017B0004881C659DB40B601C7010E9431055C0172
:1017C000CC56D44F2881C459DB40CB56D44F3881F6
:1017D000C559DB40CA56D44F4881C659DB40B401D5
:1017E000C7010E94310525E02C9DF0012D9DF00DD3
:1017F000112448E74E9D90014F9D300D1124E20FBA
:10180000F31FE60DF71D008110E00A191B090F5F99
:101810001F4F080F191F55E0589D5001599DB00CDE
:101820001124A20EB31EA60CB71CF50180818017EF
:101830001106A1F09CF00083A401B701C5010E942C
:101840000D07F50161817281737F78607283618316
:10185000402FCE018557944F0E9459085601F1E060
:10186000AF1AB108B501C7010E947205019709F0CE
:1018700059CD4E145F04E9F42A143B04D1F485E0F9
:10188000829D8001839D100D112428E7249DC001B5
:10189000259D900D1124080F191F060D171DA1017C
:1018A000B201C8010E940D07F80181819281937FE6
:1018B000A2CD4FEF4C0D6E2DCE018F5B944F0E9449
:1018C000F30681112FCD4A2D6E2D80E796E00E9400
:1018D000F306813009F026CDCE56D44F0881C25987
:1018E000DB40CD56D44F1881C359DB40CC56D44F82
:1018F0002881C459DB40CB56D44F3881C559DB40D1
:10190000CA56D44F4881C659DB40B601C7010E9470
:1019100031054C01CC56D44F2881C459DB40CB56FD
:10192000D44F3881C559DB40CA56D44F4881C65977
:10193000DB40B501C7010E94310525E02C9DF00177
:101940002D9DF00D112438E73E9D60013F9DD00C88
:101950001124EC0DFD1DE60DF71D008110E00819A6
:1019600019090F5F1F4F080F191F2A9DC0012B9DDA
:10197000900D1124C80ED91EC60CD71CF60180810B
:101980008017110609F00CF4CDCC0083818192817F
:10199000937F92838183A501B701C6010E940D0741
:1019A000F60161817281402FCE018557944F0E94CC
:1019B0005908B8CC8CEE92E02BCC2F923F924F92EC
:1019C0005F926F927F928F929F92AF92BF92CF92CF
:1019D000DF92EF92FF920F931F93CF93DF9300D08C
:1019E00000D0CDB7DEB71092C7031092C803109293
:1019F000C9031092CA032AE030E03A83298323E026
:101A0000A22EB12C33E2C32ED12C0091C60310E0DC
:101A1000F801E15DFD4F908060E0892D0E94050393
:101A2000C5010197F1F761E0892D0E940503C60108
:101A30000197F1F760E0892D0E940503F801E45D4C
:101A4000FD4F808190E0FC01EA5BFD4F6491FC0159
:101A5000E050FE4FE491F0E0EE0FFF1FEE54FE4F1A
:101A60008591949100E412E42FE030E0462F0E942B
:101A7000F311611571058105910529F06F5F7F4FA5
:101A80008F4F9F4F9F700E9474162091C703309113
:101A9000C8034091C9035091CA030E945615609330
:101AA000C7037093C8038093C9039093CA03F601D8
:101AB0003197F1F729813A81215031093A832983FD
:101AC000232B09F0A2CF20E030E040E251E40E9455
:101AD000CC156093C7037093C8038093C903909398
:101AE000CA03D090C6030E943E16072E000C880B36
:101AF000990B0E94761628E23EE74CE05DE30E94D7
:101B00006A1720E030E040E05FE30E946A174B0173
:101B10005C018092C2039092C303A092C403B0926E
:101B2000C50320E030E048E452E40E94651718162F
:101B30000CF056C080E090E0A0E8BFEB8093C203B9
:101B40009093C303A093C403B093C50385E493E0CB
:101B50000E9498076091C60370E090E080E04AE040
:101B60000E94540784E593E00E949807C090C20346
:101B7000D090C303E090C403F090C503A701960181
:101B8000C701B6010E94DF17882309F496C18CE6CD
:101B900093E00E94470782E392E00E94470780910A
:101BA000C603823009F41BC28F5F8093C60326965A
:101BB0000FB6F894DEBF0FBECDBFDF91CF911F915E
:101BC0000F91FF90EF90DF90CF90BF90AF909F90DC
:101BD0008F907F906F905F904F903F902F900895DF
:101BE00020E030E040EA50E4C501B4010E94CC1589
:101BF0000E943E164B0180910202909103028130B7
:101C0000910509F477C00CF059C0892B09F465C01F
:101C10008091670690916806937068E170E00E9479
:101C20002D187E836D838C0131E0D31609F4BBC07F
:101C3000D31608F469C082E0D81609F406C177FC0F
:101C400085CFF7FC83CF81E193E00E9498076091F4
:101C5000C60370E090E080E04AE00E9454078CE206
:101C600093E00E949807C3010E94290883E493E04F
:101C70000E949807C7010E94290882E392E00E940F
:101C80004707FF2438E1639EE00CF11C1124F701A3
:101C900083E0F595E7958A95E1F7FF27E059F94F3D
:101CA00087E0E822FF2481E090E001C0880FEA94F9
:101CB000EAF7809590818923808348CF823091050F
:101CC000F1F0039709F0A4CF1092BE031092BF0366
:101CD0001092C0031092C1039BCF85E296E0A9EC5D
:101CE000BFEB8093BE039093BF03A093C003B09358
:101CF000C1038ECF85E296E0A9E4B0E4F2CF85E29D
:101D000096E0A9ECBFE3EDCFB401990C880B990BD9
:101D10000E9476166B017C018090BE039090BF03F9
:101D2000A090C003B090C103C501B4010E94C715C3
:101D30002B013C012D813E81B901330F880B990B9A
:101D40000E94761669837A838B839C83A301920118
:101D5000C701B6010E946A179B01AC0169817A81B3
:101D60008B819C810E9456150E943E163B01C50145
:101D7000B40190580E94D7174B015C01B801110FB4
:101D8000880B990B0E9476161B012C01A50194016A
:101D9000C701B6010E946A179B01AC01C201B101E3
:101DA0000E9456154EC0B401990C880B990B0E94E5
:101DB00076166B017C018090BE039090BF03A090CB
:101DC000C003B090C103C501B40190580E94D71759
:101DD00069837A838B839C832D813E81B901330F84
:101DE000880B990B0E9476162B013C0129813A81C0
:101DF0004B815C81C701B6010E946A179B01AC014F
:101E0000C301B2010E9456150E943E163B01C50156
:101E1000B4010E94C7154B015C01B801110F880B7A
:101E2000990B0E9476161B012C01A5019401C70194
:101E3000B6010E946A179B01AC01C201B1010E9468
:101E400055150E943E167B01FACEB401990C880B01
:101E5000990B0E9476166B017C018090BE039090D6
:101E6000BF03A090C003B090C103C501B4010E949C
:101E7000D71769837A838B839C832D813E81B90137
:101E8000330F880B990B0E9476162B013C01298198
:101E90003A814B815C81C701B6010E946A179B01A0
:101EA000AC01C301B2010E9456150E943E163B01CF
:101EB000C501B4010E94C7155FCF46015701E894E0
:101EC000B7F82FEF3FEF4FE75FE7C501B4010E947E
:101ED000DF1781110DC02FEF3FEF4FE75FE7C5011F
:101EE000B4010E94C21518161CF480E793E051CE8D
:101EF0002FEF3FEF4FE75FE4C701B6010E94651780
:101F000018161CF484E793E044CE2FEF3FEF4FE721
:101F10005FECC701B6010E94C21587FDF3CF20E038
:101F200030E0A901C701B6010E94C21587FF09C0B0
:101F30006DE288EB96E00E946702F7FAF094F7F8FA
:101F4000F0942AE037ED43EA5BE3C701B6010E9453
:101F500056154B015C010E9445166B017C010E94E5
:101F600074169B01AC01C501B4010E9455154B01CB
:101F70005C014AE0C701B6010E9454076EE288EB9B
:101F800096E00E94670220E030E040E251E4C501A3
:101F9000B4010E946A174B015C010E9445166B0157
:101FA000F12CE12C4AE0C701B6010E945407C70199
:101FB000B6010E9474169B01AC01C501B4010E94D8
:101FC000551520E030E040E251E40E946A170E947B
:101FD000451690E080E04AE00E945407DCCD80E0A6
:101FE000E4CD1F920F920FB60F9211240BB60F92F1
:101FF0002F933F934F935F936F937F938F939F9311
:10200000AF93BF93EF93FF9388EB96E00E94450256
:10201000FF91EF91BF91AF919F918F917F916F91C0
:102020005F914F913F912F910F900BBE0F900FBE7C
:102030000F901F9018951F920F920FB60F921124B8
:102040000BB60F922F938F939F93EF93FF93E09193
:10205000C806F091C9068081E091CE06F091CF06C6
:1020600082FD1DC090818091D1068F5F8F7320917A
:10207000D206821741F0E091D106F0E0E854F94F22
:10208000958F8093D106FF91EF919F918F912F9122
:102090000F900BBE0F900FBE0F901F901895808170
:1020A000F2CF1F920F920FB60F9211242F933F93EE
:1020B0008F939F93AF93BF938091980590919905CB
:1020C000A0919A05B0919B053091970523E0230FCD
:1020D0002D3758F50196A11DB11D209397058093CA
:1020E000980590939905A0939A05B0939B058091CC
:1020F000930590919405A0919505B0919605019650
:10210000A11DB11D8093930590939405A09395050F
:10211000B0939605BF91AF919F918F913F912F9171
:102120000F900FBE0F901F90189526E8230F029670
:10213000A11DB11DD2CF1F920F920FB60F92112485
:102140000BB60F922F933F934F935F936F937F93B1
:102150008F939F93AF93BF93EF93FF93E0911202FE
:10216000F09113021995FF91EF91BF91AF919F915B
:102170008F917F916F915F914F913F912F910F9030
:102180000BBE0F900FBE0F901F9018951F920F92CD
:102190000FB60F9211240BB60F922F933F934F93CC
:1021A0005F936F937F938F939F93AF93BF93EF93BF
:1021B000FF93E0911002F09111021995FF91EF91B8
:1021C000BF91AF919F918F917F916F915F914F914F
:1021D0003F912F910F900BBE0F900FBE0F901F904D
:1021E00018951F920F920FB60F9211240BB60F92F3
:1021F0002F933F934F935F936F937F938F939F930F
:10220000AF93BF93EF93FF93E0910602F091070223
:102210001995FF91EF91BF91AF919F918F917F9110
:102220006F915F914F913F912F910F900BBE0F9047
:102230000FBE0F901F9018951F920F920FB60F921E
:1022400011240BB60F922F933F934F935F936F938D
:102250007F938F939F93AF93BF93EF93FF93E091FF
:102260000402F09105021995FF91EF91BF91AF9192
:102270009F918F917F916F915F914F913F912F919E
:102280000F900BBE0F900FBE0F901F9018951F92CE
:102290000F920FB60F9211240BB60F922F933F930C
:1022A0004F935F936F937F938F939F93AF93BF935E
:1022B000EF93FF93E0910E02F0910F021995FF91B9
:1022C000EF91BF91AF919F918F917F916F915F91AE
:1022D0004F913F912F910F900BBE0F900FBE0F901B
:1022E0001F9018951F920F920FB60F9211240BB6E4
:1022F0000F922F933F934F935F936F937F938F939F
:102300009F93AF93BF93EF93FF93E0910C02F091F3
:102310000D021995FF91EF91BF91AF919F918F9110
:102320007F916F915F914F913F912F910F900BBED5
:102330000F900FBE0F901F9018951F920F920FB61F
:102340000F9211240BB60F922F933F934F935F93ED
:102350006F937F938F939F93AF93BF93EF93FF936D
:10236000E0910A02F0910B021995FF91EF91BF9154
:10237000AF919F918F917F916F915F914F913F911D
:102380002F910F900BBE0F900FBE0F901F901895BE
:102390001F920F920FB60F9211240BB60F922F932C
:1023A0003F934F935F936F937F938F939F93AF93DD
:1023B000BF93EF93FF93E0910802F0910902199502
:1023C000FF91EF91BF91AF919F918F917F916F910D
:1023D0005F914F913F912F910F900BBE0F900FBEC9
:1023E0000F901F901895CF92DF92EF92FF920F936C
:1023F0001F93E82FF92F05C0015011092109310958
:1024000061F1908196239417B9F305C00150110929
:102410002109310911F1908196239413F7CFC12C32
:10242000D12CE12CF12C0AC08FEFC81AD80AE80A87
:10243000F80A0C151D052E053F0579F080818623CD
:10244000841791F36C2D7D2D8E2D9F2D1F910F9153
:10245000FF90EF90DF90CF90089560E070E080E013
:1024600090E01F910F91FF90EF90DF90CF90089533
:10247000789484B5826084BD84B5816084BD85B55F
:10248000826085BD85B5816085BD80916E0081606B
:1024900080936E0010928100809181008260809311
:1024A0008100809181008160809381008091800013
:1024B0008160809380008091B10084608093B1003E
:1024C0008091B00081608093B00080919100826023
:1024D0008093910080919100816080939100809120
:1024E00090008160809390008091A1008260809331
:1024F000A1008091A10081608093A1008091A00043
:1025000081608093A00080912101826080932101ED
:10251000809121018160809321018091200181605F
:102520008093200180917A00846080937A0080916A
:102530007A00826080937A0080917A008160809333
:102540007A0080917A00806880937A001092C100AE
:10255000E091C806F091C90682E08083E091C4064C
:10256000F091C5061082E091C606F091C7068FEC87
:1025700080831092D006E091CC06F091CD0686E0E3
:102580008083E091CA06F091CB06808180618083D0
:10259000E091CA06F091CB06808188608083E0914B
:1025A000CA06F091CB06808180688083E091CA06DC
:1025B000F091CB0680818F7D808361E086E30E946D
:1025C000910360E086E30E94050361E087E30E94D7
:1025D000910360E087E30E94050361E088E30E94C5
:1025E000910360E088E30E94050360E089E30E94B4
:1025F000910360E08AE30E94910360E08BE30E9414
:10260000910362E082E00E94910361E087E00E9412
:10261000910361E086E00E94910361E08AE00E94FC
:10262000910361E085E00E94910361E084E00E94F3
:10263000910361E089E00E9491030E949D0170E096
:1026400060E08AE00E94CD0360E087E00E9405031D
:1026500060E086E00E94050370E060E089E00E948F
:10266000CD0360E085E00E94050360E084E00E9405
:10267000050388E290E090939D0580939C0590E08F
:1026800080E061E070E030E020E0AC01420F531FD9
:10269000FA01A3E0F595E795AA95E1F7E059F94F1E
:1026A00047705527DB0101C0AA0F4A95EAF7408120
:1026B0004A2B40832F5F3F4F2831310531F7489631
:1026C000803422E09207F9F68091670690916806BF
:1026D00088279C7F909368068093670648E450E0C3
:1026E0006FEF70E080E796E00E94AC1986E6482E16
:1026F00086E0582EC8E1D0E09EE9692E95E0792E5B
:1027000022E0C22ED12C33E0A32EB12C8824839456
:10271000912CEEE9F5E011924E165F06E1F70E946A
:10272000DD0C0E94DD0C0E94DD0C80916C06909106
:102730006D0688279C7F806690936D0680936C065B
:1027400088E793E00E949807809167069091680659
:102750009370BE010E942D18CB010E94290882E8C7
:1027600093E00E94980780916706909168069370A5
:10277000BE010E942D180E94290883E392E00E9466
:1027800098078AE893E00E94980780916C069091E0
:102790006D069370BE010E942D18CB010E9429087E
:1027A00082E893E00E94980780916C0690916D06F4
:1027B0009370BE010E942D180E94290883E392E0C5
:1027C0000E949807E0906B06F0906C0600916D06F1
:1027D00010916E0620916F06409166065091670633
:1027E000609168067091690680916A060E9492085D
:1027F00084E993E00E9498070EE915E0F301019047
:102800000020E9F7CF018F59954098012E593540A6
:102810002817390740F4F80161918F0188EB96E0A1
:102820000E946702EBCF86EA93E00E949A078EEA45
:1028300093E00E949A0782E390E00E942007809133
:102840009E05853509F062C08091020290910302D5
:10285000009709F047C082E390E00E9420070E94A1
:10286000B60782E390E00E9420070E94C40790927E
:10287000030280920202809167069091680693702D
:10288000BE010E942D1861507109AC0186E696E0E8
:102890000E940D0710E000E0402F612F80E796E0D6
:1028A0000E94F306682F70E090E080E04AE00E940A
:1028B000540788E893E00E9498070F5F083161F79A
:1028C00081E893E00E949A071F5F183121F782E3A5
:1028D00090E00E94200788EE93E00E9420070E946B
:1028E000D40217CF8130910509F4BBCF029739F498
:1028F00082E390E00E9420070E94A807B2CF82E303
:1029000090E00E9420070E94A807F2CF823591F53F
:1029100080910202909103020097B1F482E390E06B
:102920000E9420070E94C407109203021092020224
:1029300080916706909168069370BE010E942D18E1
:10294000AC014F5F5F4FA2CF8130910539F482E334
:1029500090E00E9420070E94A807E0CF029739F478
:1029600082E390E00E9420070E94A807F0CF0E9417
:10297000B607D4CF8434A1F580910202909103026E
:102980000097D9F482E390E00E9420070E94A807F4
:1029900082E390E00E9420070E94C407B0920302E5
:1029A000A092020280916706909168069370BE0122
:1029B0000E942D186F5F7F4F68CF8130910539F4E9
:1029C00082E390E00E9420070E94A807DBCF0297D5
:1029D000F9F682E390E00E9420070E94B607D8CF64
:1029E0008C3409F057CF8091020290910302009736
:1029F00069F482E390E00E9420070E94A80782E326
:102A000090E00E9420070E94A80709C0813091052C
:102A1000E1F482E390E00E9420070E94B60782E37F
:102A200090E00E9420070E94C407D0920302C09247
:102A3000020280916706909168069370BE010E9421
:102A40002D18AC014150510921CF0297C1F6E7CFB3
:102A5000E8EBF6E01382128288EE93E0A0E0B0E0AB
:102A600084839583A683B7838EE192E091838083EC
:102A700085EC90E09587848784EC90E09787868743
:102A800080EC90E0918B808B81EC90E0938B828B3B
:102A900082EC90E0958B848B86EC90E0978B868B14
:102AA000118E128E138E148E08955058BB27AA27AC
:102AB0000E946D150C9417170E94DE1638F00E94C4
:102AC000E51620F039F49F3F19F426F40C94DB1638
:102AD0000EF4E095E7FB0C94D516E92F0E943C1705
:102AE00058F3BA17620773078407950720F079F443
:102AF000A6F50C945E170EF4E0950B2EBA2FA02DC0
:102B00000B01B90190010C01CA01A0011124FF279A
:102B1000591B99F0593F50F4503E68F11A16F04095
:102B2000A22F232F342F4427585FF3CF4695379594
:102B30002795A795F0405395C9F77EF41F16BA0B59
:102B4000620B730B840BBAF09150A1F0FF0FBB1F07
:102B5000661F771F881FC2F70EC0BA0F621F731F50
:102B6000841F48F4879577956795B795F7959E3FAD
:102B700008F0B0CF9395880F08F09927EE0F97953E
:102B8000879508950E94B11608F481E008950E9487
:102B9000EE16E3950C9428170E94E0150C94171775
:102BA0000E94E51658F00E94DE1640F029F45F3FBF
:102BB00029F00C94D51651110C945F170C94DB1668
:102BC0000E943C1768F39923B1F3552391F3951BA9
:102BD000550BBB27AA2762177307840738F09F5F3E
:102BE0005F4F220F331F441FAA1FA9F335D00E2EAB
:102BF0003AF0E0E832D091505040E695001CCAF718
:102C00002BD0FE2F29D0660F771F881FBB1F2617DA
:102C100037074807AB07B0E809F0BB0B802DBF01B1
:102C2000FF2793585F4F3AF09E3F510578F00C9480
:102C3000D5160C945F175F3FE4F3983ED4F3869566
:102C400077956795B795F7959F5FC9F7880F911DA1
:102C50009695879597F90895E1E0660F771F881F8D
:102C6000BB1F621773078407BA0720F0621B730B40
:102C7000840BBA0BEE1F88F7E09508950E94451665
:102C80006894B1110C945F1708950E94441788F05E
:102C90009F5798F0B92F9927B751B0F0E1F0660F20
:102CA000771F881F991F1AF0BA95C9F714C0B13061
:102CB00091F00E945E17B1E008950C945E17672FA3
:102CC000782F8827B85F39F0B93FCCF38695779590
:102CD0006795B395D9F73EF4909580957095619579
:102CE0007F4F8F4F9F4F0895E89409C097FB3EF4A4
:102CF00090958095709561957F4F8F4F9F4F992349
:102D0000A9F0F92F96E9BB279395F69587957795C6
:102D10006795B795F111F8CFFAF4BB0F11F460FF86
:102D20001BC06F5F7F4F8F4F9F4F16C0882311F0DE
:102D300096E911C0772321F09EE8872F762F05C0F2
:102D4000662371F096E8862F70E060E02AF09A958D
:102D5000660F771F881FDAF7880F9695879597F982
:102D60000895990F0008550FAA0BE0E8FEEF16161C
:102D70001706E807F907C0F012161306E407F5076F
:102D800098F0621B730B840B950B39F40A2661F0E3
:102D9000232B242B252B21F408950A2609F4A14086
:102DA000A6958FEF811D811D089597F99F6780E893
:102DB00070E060E008959FEF80EC089500240A948D
:102DC0001616170618060906089500240A94121606
:102DD00013061406050608950C94DB160E9444178A
:102DE000D8F3E894E0E0BB279F57F0F02AED3FE0EE
:102DF00049EC06C0EE0FBB0F661F771F881F28F037
:102E0000B23A62077307840728F0B25A620B730B59
:102E1000840BE3959A9572F7803830F49A95BB0F3E
:102E2000661F771F881FD2F790480C94E617092E6B
:102E30000394000C11F4882352F0BB0F40F4BF2B15
:102E400011F460FF04C06F5F7F4F8F4F9F4F089555
:102E5000EF93E0FF07C0A2EA2AED3FE049EC5FEB09
:102E60000E946D150E9417170F90039401FC905853
:102E7000E4EEF0E00C94F21757FD9058440F551F04
:102E800059F05F3F71F04795880F97FB991F61F0EC
:102E90009F3F79F087950895121613061406551F63
:102EA000F2CF4695F1DF08C0161617061806991FCF
:102EB000F1CF86957105610508940895E894BB27C4
:102EC00066277727CB0197F908950E94B11608F479
:102ED0008FEF08950E947D170C9417170E94DE163D
:102EE00038F00E94E51620F0952311F00C94D516C9
:102EF0000C94DB1611240C945F170E943C1770F39E
:102F0000959FC1F3950F50E0551F629FF001729F8E
:102F1000BB27F00DB11D639FAA27F00DB11DAA1F9D
:102F2000649F6627B00DA11D661F829F2227B00DEA
:102F3000A11D621F739FB00DA11D621F839FA00D75
:102F4000611D221F749F3327A00D611D231F849FC5
:102F5000600D211D822F762F6A2F11249F5750401C
:102F60009AF0F1F088234AF0EE0FFF1FBB1F661F97
:102F7000771F881F91505040A9F79E3F510580F060
:102F80000C94D5160C945F175F3FE4F3983ED4F38E
:102F9000869577956795B795F795E7959F5FC1F704
:102FA000FE2B880F911D9695879597F908959F930D
:102FB0000E94EE160F9007FCEE5F0C9428170E94FB
:102FC000B116880B990B08959F3F31F0915020F472
:102FD000879577956795B795880F911D96958795F5
:102FE00097F908959F938F937F936F93FF93EF9338
:102FF0009B01AC010E946A17EF91FF910E94061895
:103000002F913F914F915F910C946A17DF93CF936B
:103010001F930F93FF92EF92DF927B018C016894D4
:1030200006C0DA2EEF010E947D17FE01E894A591FB
:103030002591359145915591A6F3EF010E946D15AB
:10304000FE019701A801DA9469F7DF90EF90FF90F5
:103050000F911F91CF91DF910895AA1BBB1B51E1E6
:1030600007C0AA1FBB1FA617B70710F0A61BB70BF8
:10307000881F991F5A95A9F780959095BC01CD019D
:103080000895A1E21A2EAA1BBB1BFD010DC0AA1FA9
:10309000BB1FEE1FFF1FA217B307E407F50720F0C1
:1030A000A21BB30BE40BF50B661F771F881F991F3C
:1030B0001A9469F760957095809590959B01AC0185
:1030C000BD01CF010895EE0FFF1F881F8BBF079032
:1030D000F691E02D19940F931F93CF93DF93869F62
:1030E0008001879F100D969F100D1124C8010E942A
:1030F0008718EC01009729F0A80170E060E00E94B9
:10310000AC19CE01DF91CF911F910F9108950F93CC
:103110001F93CF93DF938230910510F482E090E00B
:10312000E0915707F091580730E020E0B0E0A0E0D0
:10313000309799F42115310509F44AC0281B390B41
:1031400024303105D8F58A819B816115710589F19B
:10315000FB0193838283FE0111C040815181028172
:10316000138148175907E0F04817590799F4109749
:1031700061F012960C93129713961C933296CF011E
:10318000DF91CF911F910F910895009357071093EE
:103190005807F4CF2115310551F04217530738F085
:1031A000A901DB019A01BD01DF01F801C1CFEF01E7
:1031B000F9CF9093580780935707CDCFFE01E20FC8
:1031C000F31F819391932250310939832883D7CFFC
:1031D0002091550730915607232B41F42091160278
:1031E000309117023093560720935507209114020F
:1031F000309115022115310541F42DB73EB74091AC
:10320000180250911902241B350BE0915507F091DB
:103210005607E217F307A0F42E1B3F0B28173907B8
:1032200078F0AC014E5F5F4F2417350748F04E0F22
:103230005F1F5093560740935507819391939FCFFB
:10324000F0E0E0E09CCFCF93DF930097E9F0FC0142
:10325000329713821282A0915707B0915807ED015F
:1032600030E020E01097A1F420813181820F931F7C
:1032700020915507309156072817390709F061C08A
:10328000F0935607E0935507DF91CF910895EA0137
:10329000CE17DF07E8F54A815B819E014115510594
:1032A000B1F7E901FB83EA8349915991C40FD51F16
:1032B000EC17FD0761F4808191810296840F951FC0
:1032C000E90199838883828193819B838A83F0E0DB
:1032D000E0E012968D919C9113970097B9F52D918E
:1032E0003C911197CD010296820F931F20915507B3
:1032F000309156072817390739F6309751F5109253
:10330000580710925707B0935607A0935507BCCFA4
:10331000D383C28340815181840F951FC817D90779
:1033200061F44E5F5F4F88819981480F591F518327
:1033300040838A819B81938382832115310509F023
:10334000B0CFF0935807E09357079ECFFD01DC0103
:10335000C0CF13821282D7CFDC0101C06D934150E0
:103360005040E0F70895F894FFCFFFFF0300D0012D
:10337000D001D001D001D001D001D001D001000096
:1033800059078000000000006702D101FE01B4026D
:103390002F020D022102393A3B3637380D0A004D13
:1033A0004F56494E47205249474854204E4F5700E8
:1033B0004D4F56494E47204C454654204E4F5700DE
:1033C0004D4F56494E4720464F5257415244204E8A
:1033D0004F5700536F75726365206F722064657379
:1033E0007420697320696E76616C69640A00536F9A
:1033F00075726365206F72207468652064657374EC
:10340000696E6174696F6E20697320626C6F636BA3
:1034100065640A0057652061726520616C726561A0
:103420006479206174207468652064657374696EC2
:103430006174696F6E0A005468652064657374690D
:103440006E6174696F6E2063656C6C2069732066B1
:103450006F756E640A004661696C656420746F2044
:1034600066696E64207468652044657374696E6172
:1034700074696F6E2043656C6C0A0073656E736FC0
:1034800072207772746974696E67206E6F77206935
:1034900073206E6F23002057726974696E67206E07
:1034A0006F772061742028782C79293D002C0073D7
:1034B000656E736F725F6E696D6265723D0020208C
:1034C0002072656164696E67206F66206469737439
:1034D000616E63653D006E616E00696E66006F76B9
:1034E0006600537263202D2D3E2009002020202CE1
:1034F00020202000446573742D2D3E20090054685F
:10350000652070617468206973202D2D3E20200095
:103510000A446F6E65200A004C45542773204D4FB6
:083520004F4F4F5645200000FB
:10E000000D9489F10D94B2F10D94B2F10D94B2F129
:10E010000D94B2F10D94B2F10D94B2F10D94B2F1F0
:10E020000D94B2F10D94B2F10D94B2F10D94B2F1E0
:10E030000D94B2F10D94B2F10D94B2F10D94B2F1D0
:10E040000D94B2F10D94B2F10D94B2F10D94B2F1C0
:10E050000D94B2F10D94B2F10D94B2F10D94B2F1B0
:10E060000D94B2F10D94B2F10D94B2F10D94B2F1A0
:10E070000D94B2F10D94B2F10D94B2F10D94B2F190
:10E080000D94B2F10D94B2F10D94B2F10D94B2F180
:10E090000D94B2F10D94B2F10D94B2F10D94B2F170
:10E0A0000D94B2F10D94B2F10D94B2F10D94B2F160
:10E0B0000D94B2F10D94B2F10D94B2F10D94B2F150
:10E0C0000D94B2F10D94B2F10D94B2F10D94B2F140
:10E0D0000D94B2F10D94B2F10D94B2F10D94B2F130
:10E0E0000D94B2F141546D656761323536300041AF
:10E0F000726475696E6F206578706C6F72657220DE
:10E1000073746B3530305632206279204D4C530099
:10E11000426F6F746C6F616465723E004875683F52
:10E1200000436F6D70696C6564206F6E203D200048
:10E130004350552054797065202020203D20005FF9
:10E140005F4156525F415243485F5F3D2000415658
:10E1500052204C696243205665723D20004743437C
:10E160002056657273696F6E203D20004350552024
:10E1700049442020202020203D20004C6F7720663D
:10E18000757365202020203D20004869676820665F
:10E190007573652020203D200045787420667573D6
:10E1A00065202020203D20004C6F636B2066757336
:10E1B000652020203D20004D617220203720323024
:10E1C000313300312E362E3800342E332E350056A2
:10E1D00023202020414444522020206F7020636F70
:10E1E00064652020202020696E73747275637469E1
:10E1F0006F6E2061646472202020496E74657272B3
:10E20000757074006E6F20766563746F7200726A49
:10E210006D702020006A6D70200057686174207056
:10E220006F72743A00506F7274206E6F7420737541
:10E2300070706F72746564004D7573742062652030
:10E2400061206C6574746572002000577269747483
:10E25000696E672045450052656164696E672045B7
:10E26000450045452065727220636E743D00504F35
:10E27000525400303D5A65726F2061646472003FF1
:10E280003D43505520737461747300403D454550C3
:10E29000524F4D207465737400423D426C696E6B41
:10E2A000204C454400453D44756D70204545505215
:10E2B0004F4D00463D44756D7020464C415348001B
:10E2C000483D48656C70004C3D4C69737420492F83
:10E2D0004F20506F72747300513D51756974005234
:10E2E0003D44756D702052414D00563D73686F7707
:10E2F00020696E7465727275707420566563746FF0
:10E30000727300593D506F727420626C696E6B00BD
:10E310002A0011241FBECFEFD1E2DEBFCDBF01E046
:10E320000CBF12E0A0E0B2E0EEE1FDEF03E00BBFB6
:10E3300002C007900D92A030B107D9F712E0A0E01B
:10E34000B2E001C01D92AE30B107E1F70F9460F367
:10E350000D948DFE01E20EBF0FEF0DBF11241FBE05
:10E360000D9460F30D9400F020E030E040ED57E0B4
:10E3700005C0FA013197F1F72F5F3F4F2817390792
:10E38000C0F308959C01260F311DC901A0E0B0E043
:10E390002F5F3F4FABBFFC018791882361F08093D3
:10E3A000C6008091C00086FFFCCF8091C0008064D1
:10E3B0008093C000EACF08958DE08093C6008091DD
:10E3C000C00086FFFCCF8091C00080648093C000B5
:10E3D0008AE08093C6008091C00086FFFCCF8091C8
:10E3E000C00080648093C00008950F94C2F10F9420
:10E3F000DCF10895FC019081992359F09093C600B7
:10E400008091C00086FFFCCF8091C0008064809323
:10E41000C0003196992379F70895282F982F929567
:10E420009F70892F805D8A3308F0895F8093C600D2
:10E430008091C00086FFFCCF8091C00080648093F3
:10E44000C000822F8F70982F905D9A3308F0995FEB
:10E450009093C6008091C00086FFFCCF8091C000E1
:10E4600080648093C00008959C01FB01853691056E
:10E470001CF46330710594F0C90164E670E00F94F8
:10E480002EFE605D7F4F6093C6008091C00086FFC6
:10E49000FCCF8091C00080648093C0002B30310598
:10E4A00014F43297B4F0C90164E670E00F942EFEC4
:10E4B0006AE070E00F942EFE605D7F4F6093C600AF
:10E4C0008091C00086FFFCCF8091C0008064809363
:10E4D000C000C9016AE070E00F942EFEC0968093E0
:10E4E000C6008091C00086FFFCCF8091C000806490
:10E4F0008093C00008951F93182F8EE692EE60E07F
:10E500000F94C2F11093C6008091C00086FFFCCF2B
:10E510008091C00080648093C0000F94DCF11F9153
:10E5200008952F923F924F925F926F927F928F92B7
:10E530009F92AF92BF92CF92DF92EF92FF920F9392
:10E540001F93DF93CF93CDB7DEB762970FB6F894E2
:10E55000DEBF0FBECDBF382E622ECA01DB015C01CB
:10E560006D01772420E2222E2E010894411C511CBB
:10E570008BC081E0A81680E0B80681E0C80680E084
:10E58000D80628F0C601AA27BB270F940DF2BB2797
:10E59000AD2D9C2D8B2D0F940DF28A2D0F940DF225
:10E5A0002092C6008091C00086FFFCCF8091C00001
:10E5B00080648093C0009DE29093C6008091C0006B
:10E5C00086FFFCCF8091C00080648093C0002092C1
:10E5D000C6008091C00086FFFCCF8091C00080649F
:10E5E0008093C00019828601750188249924A1E0D6
:10E5F0003A1651F03A1620F0B2E03B1661F409C029
:10E600000BBFF701779007C0C7010F9477FE782EF4
:10E6100002C0F7017080872D0F940DF22092C60082
:10E620008091C00086FFFCCF8091C0008064809301
:10E63000C000872D8052F401EF70F0708F3520F408
:10E64000E40DF51D708204C0E40DF51D8EE280839B
:10E650000894E11CF11C011D111D0894811C911CE2
:10E6600090E18916910409F0C2CF80E190E0A0E02A
:10E67000B0E0A80EB91ECA1EDB1E198AC2010F9493
:10E68000FAF10F94DCF16A94662009F072CF629679
:10E690000FB6F894DEBF0FBECDBFCF91DF911F91B3
:10E6A0000F91FF90EF90DF90CF90BF90AF909F9031
:10E6B0008F907F906F905F904F903F902F90089534
:10E6C0002F923F924F925F926F927F928F929F9282
:10E6D000AF92BF92CF92DF92EF92FF920F931F9370
:10E6E000DF93CF93CDB7DEB7CD53D1400FB6F894BB
:10E6F000DEBF0FBECDBF01E20EBF0FEF0DBF94B75F
:10E70000F894A89514BE80916000886180936000A1
:10E7100010926000789493FF05C0E0910002F091A0
:10E7200001021995279A2F9A8091C00082608093E8
:10E73000C00080E18093C40088E18093C1000000A4
:10E74000EE24FF24870144E0A42EB12CCC24DD2448
:10E7500024C0C5010197F1F70894E11CF11C011DCB
:10E76000111D21E2E2162EE4F20620E0020720E06D
:10E77000120718F031E0C32ED12CC801B70127ECE5
:10E780003BE140E050E00F9441FE611571058105C9
:10E79000910519F485B1805885B98091C00087FD35
:10E7A00003C0C114D104A9F2A6014F5F5F4FC25E3E
:10E7B000DE4F59834883CE51D140C25EDE4F8881FF
:10E7C0009981CE51D140019711F00D9410FEC05D9A
:10E7D000DE4F19821882C053D14060E0C15DDE4F28
:10E7E0001882CF52D14088249924C35DDE4F19820C
:10E7F0001882CD52D140C05EDE4F188219821A8233
:10E800001B82C052D140CE5CDE4F188219821A8220
:10E810001B82C253D140EE24FF2487010BBFF701B6
:10E8200007911691C45CDE4F19830883CC53D14005
:10E830000D940BFEC25EDE4F28813981CE51D1404E
:10E840002130310509F52091C600C25EDE4F1982E4
:10E850001882CE51D14022C02F5F3F4F4F4F5F4FA4
:10E86000213082E138078AE7480780E0580780F0C6
:10E87000C45CDE4FE881F981CC53D140EF5FFF4F9C
:10E8800019F0EE27FF27099420E030E040E050E047
:10E890008091C00087FFE0CF2091C600C35DDE4FAE
:10E8A00048815981CD52D1404F5F5F4FC35DDE4FEC
:10E8B00059834883CD52D140213209F063C64A3092
:10E8C000510508F05FC60894811C911C53E0851621
:10E8D000910409F059C600E010E018C081E280936D
:10E8E000C6008091C00086FFFCCF8091C00080648C
:10E8F0008093C0002F5F3F4F2931310579F70F9486
:10E90000DCF10F5F1F4F0530110519F020E030E0FA
:10E91000E5CF10920A0210920B0210920C02109294
:10E920000D02109206021092070210920802109235
:10E930000902109202021092030210920402109235
:10E9400005028FEE90EE60E00F94F5F180E191EE1C
:10E9500060E00F94C2F18091C00087FFFCCF9091DE
:10E96000C600903608F09F759032B8F09093C600BC
:10E970008091C00086FFFCCF8091C00080648093AE
:10E98000C000A0E2A093C6008091C00086FFFCCF2B
:10E990008091C00080648093C000983409F4D7C18E
:10E9A0009934B8F4923409F459C1933458F490333B
:10E9B00019F1903308F4E3C59F33A1F1903409F0C5
:10E9C000DEC5BDC0953409F470C1963409F0D7C5D1
:10E9D00098C1923509F42BC2933538F49C3409F46C
:10E9E000F5C1913509F0CBC518C2963509F445C279
:10E9F000993509F0C4C567C483E792EE62E00F94CD
:10EA0000F5F110920602109207021092080210927D
:10EA1000090210920A0210920B0210920C0210923C
:10EA20000D0213C18FE792EE62E00F94F5F18FEEC5
:10EA300090EE60E00F94F5F181E291EE60E00F94CA
:10EA4000C2F187EB91EE60E00F94F5F180E391EE77
:10EA500060E00F94C2F184EE90EE60E00F94F5F167
:10EA60008FE391EE60E00F94C2F186E090E061E008
:10EA700070E00F9434F20F94DCF18DE591EE60E0DC
:10EA80000F94C2F189EC91EE60E00F94F5F18EE401
:10EA900091EE60E00F94C2F183EC91EE60E00F9490
:10EAA000F5F18CE691EE60E00F94C2F18EE10F94E7
:10EAB0000DF288E90F940DF281E00F940DF20F949E
:10EAC000DCF18BE791EE60E00F94C2F119E0E0E039
:10EAD000F0E010935700E4918E2F0F940DF20F94F5
:10EAE000DCF18AE891EE60E00F94C2F1E3E0F0E03F
:10EAF00010935700E4918E2F0F940DF20F94DCF1D8
:10EB000089E991EE60E00F94C2F1E2E0F0E0109349
:10EB10005700E4918E2F0F940DF20F94DCF188EAE8
:10EB200091EE60E00F94C2F1E1E0F0E01093570045
:10EB30001491812F0F940DF20F94DCF107CF8BE825
:10EB400092EE62E00F94F5F18BE492EE60E00F94A8
:10EB5000F5F10F94DCF100E010E019C0C8016F2D51
:10EB60000F947FFEFF2031F489E492EE60E00F9471
:10EB7000C2F10BC0F092C6008091C00086FFFCCFAE
:10EB80008091C00080648093C0000F5F1F4FC80158
:10EB900081519F41A0E0B0E0ABBFFC01F790BAE229
:10EBA000FB1621F0E2E000301E07C1F60F94DCF105
:10EBB0000F94DCF187E592EE60E00F94F5F10F948D
:10EBC000DCF1CC24DD2400E010E01EC0C8010F946D
:10EBD00077FEF82E882331F489E492EE60E00F94FA
:10EBE000C2F10BC08093C6008091C00086FFFCCFAD
:10EBF0008091C00080648093C000FE1419F00894D6
:10EC0000C11CD11C0F5F1F4FC80181519F41A0E063
:10EC1000B0E0ABBFFC01E790FAE2EF1621F022E092
:10EC20000030120799F60F94DCF10F94DCF182E6C4
:10EC300092EE60E00F94C2F1C60161E070E00F94C3
:10EC400034F20F94DCF10F94DCF110920202109276
:10EC50000302109204021092050278CE89E992EE26
:10EC600062E00F94F5F1279A2F9A16C02F9880E052
:10EC700090E0E0EDF7E03197F1F7019684369105E9
:10EC8000C1F72F9A80E090E0E0EDF7E03197F1F7DF
:10EC9000019684369105C1F78091C00087FFE6CFC9
:10ECA0008091C00087FFFCCF64C485EA92EE62E0E9
:10ECB0000F94F5F140910202509103026091040219
:10ECC0007091050281E020E10F9491F2809102029F
:10ECD00090910302A0910402B091050280509F4FD1
:10ECE000AF4FBF4F8093020290930302A0930402A0
:10ECF000B093050280509041A040B04008F426CE69
:10ED0000A4CF83EB92EE62E00F94F5F140910602FE
:10ED100050910702609108027091090280E020E1A1
:10ED20000F9491F28091060290910702A09108023F
:10ED3000B091090280509F4FAF4FBF4F80930602A2
:10ED400090930702A0930802B0930902FFCD80ECD4
:10ED500092EE62E00F94F5F183E792EE60E00F949B
:10ED6000F5F18FE792EE60E00F94F5F18BE892EE0B
:10ED700060E00F94F5F189E992EE60E00F94F5F10F
:10ED800085EA92EE60E00F94F5F183EB92EE60E09D
:10ED90000F94F5F180EC92EE60E00F94F5F187ECC2
:10EDA00092EE60E00F94F5F188ED92EE60E00F9442
:10EDB000F5F18FED92EE60E00F94F5F18AEE92EEB0
:10EDC00060E00F94F5F183E093EEBDCD87EC92EE19
:10EDD00062E00F94F5F181E40F947BF282E40F94EA
:10EDE0007BF283E40F947BF284E40F947BF285E45E
:10EDF0000F947BF286E40F947BF287E40F947BF20E
:10EE000088E40F947BF28AE40F947BF28BE40F94F6
:10EE10007BF28CE40F947BF299CD88ED92EE62E068
:10EE20000F94F5F1772473948824992409C48FED05
:10EE300092EE62E00F94F5F140910A0250910B02BC
:10EE400060910C0270910D0282E020E10F9491F22A
:10EE500080910A0290910B02A0910C02B0910D02D8
:10EE600080509F4FAF4FBF4F80930A0290930B0289
:10EE7000A0930C02B0930D0269CD8AEE92EE62E08F
:10EE80000F94F5F184EE90EE60E00F94F5F18FECC5
:10EE900091EE60E00F94F5F1662477244301CC5D98
:10EEA000DE4F19821882C452D140D401C301B695F5
:10EEB000A79597958795CA5DDE4F88839983AA8326
:10EEC000BB83C652D140CC5DDE4FA881B981C4520C
:10EED000D1401196CC5DDE4FB983A883C452D14096
:10EEE000CD0162E070E00F9434F2B0E2B093C6005E
:10EEF0008091C00086FFFCCF8091C0008064809329
:10EF0000C000EDE2E093C6008091C00086FFFCCF18
:10EF10008091C00080648093C000F0E2F093C6004E
:10EF20008091C00086FFFCCF8091C00080648093F8
:10EF3000C000CA5DDE4FE880F9800A811B81C6529D
:10EF4000D140BB27A12F902F8F2D0F940DF2CA5DBA
:10EF5000DE4F8881C652D1400F940DF2B0E2FB2EF5
:10EF6000F092C6008091C00086FFFCCF8091C00067
:10EF700080648093C0000DE30093C6008091C000C0
:10EF800086FFFCCF8091C00080648093C00010E2B7
:10EF90001093C6008091C00086FFFCCF8091C00016
:10EFA00080648093C0008BBEF3012791C65DDE4F65
:10EFB0002883CA52D140A22EBB24CC24DD2408943D
:10EFC000611C711C811C911C8BBEF3018791282E42
:10EFD0003324442455240894611C711C811C911C09
:10EFE0008BBEF3013791C55DDE4F3883CB52D140E4
:10EFF0000894611C711C811C911C8BBEF30147910C
:10F00000C45DDE4F4883CC52D140ADEFEA2EAFEF66
:10F01000FA2EAFEF0A2FAFEF1A2F6E0C7F1C801E57
:10F02000911E142D032DF22CEE24EA0CFB1C0C1D5A
:10F030001D1D0F940DF220E22093C6008091C000A8
:10F0400086FFFCCF8091C00080648093C000C65DC5
:10F05000DE4F8881CA52D1400F940DF230E23093D6
:10F06000C6008091C00086FFFCCF8091C000806404
:10F070008093C000C45DDE4F8881CC52D1400F9494
:10F080000DF240E24093C6008091C00086FFFCCFA5
:10F090008091C00080648093C000C55DDE4F888190
:10F0A000CB52D1400F940DF250E25093C6008091A4
:10F0B000C00086FFFCCF8091C00080648093C000B8
:10F0C0008FEFE8168FEFF80680E0080780E018075A
:10F0D00031F484E092EE60E00F94C2F1DFC0D80119
:10F0E000C7018070907CA070B0708050904CA040A0
:10F0F000B040D1F52FEF3FE340E050E0E222F322B1
:10F1000004231523CA5DDE4FA880B980CA80DB8046
:10F11000C652D140AE0CBF1CC01ED11EAA0CBB1CD7
:10F12000CC1CDD1C8EE092EE60E00F94C2F1BB2798
:10F13000A12F902F8F2D0F940DF28E2D0F940DF285
:10F1400030E23093C6008091C00086FFFCCF8091F2
:10F15000C00080648093C0004EE34093C60080915D
:10F16000C00086FFFCCF87C08EE09EEFA0E0B0E03D
:10F17000E822F9220A231B239CE0E91694E9F90608
:10F1800090E0090790E0190709F088C0C45DDE4FE0
:10F19000A881CC52D140EA2EFF2400E010E0102FCD
:10F1A0000F2DFE2CEE24C55DDE4FB881CB52D14031
:10F1B000EB0EF11C011D111DD601C501817090706F
:10F1C000A070B070DC0199278827E80EF91E0A1F8D
:10F1D0001B1F20EF30E040E050E0A222B322C42207
:10F1E000D52241E1AA0CBB1CCC1CDD1C4A95D1F7F1
:10F1F000EA0CFB1C0C1D1D1D81E090E0A0E0B0E0BE
:10F20000282239224A225B2235E1220C331C441C7D
:10F21000551C3A95D1F7E20CF31C041D151D57013E
:10F220006801AA0CBB1CCC1CDD1C85E192EE60E0E1
:10F230000F94C2F1C801AA27BB270F940DF2BB2778
:10F24000A12F902F8F2D0F940DF28E2D0F940DF274
:10F2500090E29093C6008091C00086FFFCCF809121
:10F26000C00080648093C000AEE3A093C60080918C
:10F27000C00086FFFCCF8091C00080648093C000F6
:10F28000C601AA27BB270F940DF2BB27AD2D9C2DDD
:10F290008B2D0F940DF28A2D0F940DF20F94DCF14B
:10F2A000CC5DDE4FE881F981C452D140F99709F471
:10F2B0004DCBF4E0EF2EF12C012D112D6E0C7F1CA7
:10F2C000801E911EF2CD83E093EE62E00F94F5F183
:10F2D0008AE192EE60E00F94C2F18091C00087FF56
:10F2E000FCCF1091C6001F751093C6008091C0001E
:10F2F00086FFFCCF8091C00080648093C0000F9493
:10F30000DCF1812F81548A3108F036C1163409F4BA
:10F3100095C0173490F4133409F44EC0143430F40B
:10F320001134F1F0123409F01DC130C0143409F465
:10F3300059C0153409F016C16BC01A3409F4C4C0A1
:10F340001B3438F4173409F48FC0183409F00AC19B
:10F35000A1C01B3409F4D2C01C3409F003C1E8C0B9
:10F360008FEF81B90DC082B1809582B980E090E0C5
:10F37000E0EDF7E03197F1F70196883C9105C1F790
:10F380008091C00087FFEFCF12B8EFC08FEF84B934
:10F390000DC085B1809585B980E090E0E0EDF7E0A3
:10F3A0003197F1F70196883C9105C1F78091C00033
:10F3B00087FFEFCF15B8D9C08FEF87B90DC088B1DF
:10F3C000809588B980E090E0E0EDF7E03197F1F7C3
:10F3D0000196883C9105C1F78091C00087FFEFCF6F
:10F3E00018B8C3C08FEF8AB90DC08BB180958BB9A7
:10F3F00080E090E0E0EDF7E03197F1F70196883C8E
:10F400009105C1F78091C00087FFEFCF1BB8ADC059
:10F410008FEF8DB90DC08EB180958EB980E090E0F0
:10F42000E0EDF7E03197F1F70196883C9105C1F7DF
:10F430008091C00087FFEFCF1EB897C08FEF80BBD1
:10F440000DC081B3809581BB80E090E0E0EDF7E0F6
:10F450003197F1F70196883C9105C1F78091C00082
:10F4600087FFEFCF11BA81C08FEF83BB0DC084B38C
:10F47000809584BB80E090E0E0EDF7E03197F1F714
:10F480000196883C9105C1F78091C00087FFEFCFBE
:10F4900014BA6BC08FEF809301010FC080910201FD
:10F4A00080958093020180E090E0E0EDF7E03197F5
:10F4B000F1F70196883C9105C1F78091C00087FF64
:10F4C000EDCF1092020151C08FEF809304010FC065
:10F4D0008091050180958093050180E090E0E0ED4A
:10F4E000F7E03197F1F70196883C9105C1F78091DB
:10F4F000C00087FFEDCF1092050137C08FEF8093DA
:10F5000007010FC08091080180958093080180E079
:10F5100090E0E0EDF7E03197F1F70196883C910536
:10F52000C1F78091C00087FFEDCF109208011DC088
:10F530008FEF80930A010FC080910B01809580931B
:10F540000B0180E090E0E0EDF7E03197F1F70196F4
:10F55000883C9105C1F78091C00087FFEDCF1092E4
:10F560000B0103C085E292EEEEC98091C00087FFD7
:10F57000FCCF8091C600EAC988E392EEE4C98CE131
:10F5800091EEE1C988249924933011F1943028F444
:10F59000913089F09230B8F408C0953061F195301F
:10F5A000F0F0963009F048C043C02B3109F042C951
:10F5B00091E06BE13FC96227C15DDE4F2883CF52E6
:10F5C000D14092E037C9B22FA0E0622793E032C960
:10F5D000822F90E0A82BB92B622794E02BC92E3004
:10F5E00009F039C3622795E0C05DDE4F19821882A9
:10F5F000C053D1401FC9E1E0F0E0EC0FFD1FC05D3A
:10F60000DE4F08811981C053D140E00FF11F2083E4
:10F610000F5F1F4FC05DDE4F19830883C053D14079
:10F6200062270A171B0709F005C9D80196E002C92D
:10F63000261709F010C303C0973009F0FBC87724E0
:10F640009981933109F412C19431C8F4963009F4C8
:10F65000D8C0973050F4923009F406C1933009F4C1
:10F660006DC0913009F059C253C0913109F477C08F
:10F67000923108F0BBC0903109F04FC2F5C098310B
:10F6800009F487C0993150F4953109F4EFC09531F0
:10F6900008F4C6C1963109F040C2C2C19A3109F4DA
:10F6A0006CC09A3108F491C09B3109F45BC09D3164
:10F6B00009F033C29D81903359F48F81882311F46E
:10F6C0009EE11CC0813011F091E018C098E916C08D
:10F6D000892F807591F0903539F4E0E0F0E089E011
:10F6E0008093570094910AC0983539F4E3E0F0E034
:10F6F00089E080935700949101C090E01A821B82A8
:10F700008D818C831D829E831F8227E030E009C299
:10F710001A8288E08B8381E48C8386E58D8382E581
:10F720008E8389E48F8383E5888780E589878FE5E9
:10F730008A8782E38B872BE030E0F3C18A818139AD
:10F7400041F0823941F0803911F48FE005C080E04A
:10F7500003C082E001C08AE01A828B8344C0772410
:10F76000739482C08D81882311F48EE12CC0813086
:10F7700011F081E028C088E926C01A82E1E0F0E0BB
:10F7800089E08093570084918B831C8224E030E0D1
:10F79000C8C18B81803589F48C81883039F4E2E0EE
:10F7A000F0E089E08093570084910DC0E0E0F0E044
:10F7B00089E080935700849106C0E3E0F0E089E09F
:10F7C0008093570084911A82DFCF8D81836C99E0FA
:10F7D000E1E0F0E0082E90935700E89507B600FCB2
:10F7E000FDCF1A821B8223E030E09BC180EC8A832C
:10F7F000CE5CDE4F188219821A821B82C253D1401E
:10F800008EC18A8190E0A0E0B0E0582F44273327D2
:10F8100022278B8190E0A0E0B0E0DC0199278827C7
:10F82000282B392B4A2B5B2B8D8190E0A0E0B0E098
:10F83000282B392B4A2B5B2B8C8190E0A0E0B0E089
:10F84000BA2FA92F982F8827282B392B4A2B5B2BCF
:10F85000220F331F441F551FC05EDE4F288339839C
:10F860004A835B83C052D1401A8259C13A81C95C34
:10F87000DE4F3883C753D140CA5CDE4F1882C6536F
:10F88000D1408B81C82EDD24CA5CDE4F488159816E
:10F89000C653D140C42AD52A933109F082C0CE5C28
:10F8A000DE4F88819981AA81BB81C253D1408050AB
:10F8B000904CA340B04030F583E0CE5CDE4FE88052
:10F8C000F9800A811B81C253D140F70100935B008C
:10F8D00080935700E89507B600FCFDCFCE5CDE4F65
:10F8E000088119812A813B81C253D14000501F4FAA
:10F8F0002F4F3F4FCE5CDE4F088319832A833B8313
:10F90000C253D140C05EDE4F488159816A817B81FC
:10F91000C052D140DE011B9631E08C9111962C91A2
:10F9200011971296C75CDE4F2883C953D140C85C3B
:10F93000DE4F1882C853D14090E0C85CDE4FE881AA
:10F94000F981C853D1408E2B9F2B0C01FA01609393
:10F950005B0030935700E89511244E5F5F4F6F4F67
:10F960007F4F0EEFE02E0FEFF02ECE0CDF1CC114F8
:10F97000D10499F685E0C05EDE4F088119812A81A5
:10F980003B81C052D140F80120935B008093570027
:10F99000E89507B600FCFDCF81E180935700E8951C
:10F9A00035C0C05EDE4F88819981AA81BB81C0527B
:10F9B000D140B695A795979587957C018601ABE0D8
:10F9C000AA2EB12CAC0EBD1E0BC0D5016D915D01F0
:10F9D000C7010F947FFE0894E11CF11C01501040F8
:10F9E0000115110591F7A60160E070E0440F551F65
:10F9F000661F771FC05EDE4FE880F9800A811B8199
:10FA0000C052D1404E0D5F1D601F711F1A82C05E33
:10FA1000DE4F488359836A837B83C052D1407FC0C5
:10FA2000FA80C55CDE4FF882CB53D140C65CDE4F16
:10FA30001882CA53D1408B81C82EDD24C65CDE4FAC
:10FA400008811981CA53D140C02AD12A1A828981DA
:10FA5000BE016D5F7F4F843121F59601C05EDE4FA0
:10FA6000E880F9800A811B81C052D1400BBFF701A9
:10FA700087919691DB018C9311969C936E5F7F4FDB
:10FA8000D801C7010296A11DB11DC05EDE4F88835B
:10FA90009983AA83BB83C052D14022503040F1F6F3
:10FAA00036C0C05EDE4F288139814A815B81C052F9
:10FAB000D1400894C108D108760100E010E0089414
:10FAC000C11CD11C0894E11CF11C011D111DE20E8A
:10FAD000F31E041F151F21BDBB27A52F942F832FB5
:10FAE00082BD2F5F3F4F4F4F5F4FF89A80B5DB01CC
:10FAF0008D93BD012E153F054007510761F7C05E8C
:10FB0000DE4F288339834A835B83C052D1409601FC
:10FB10002D5F3F4FFB01108204C080EC8A8322E0FE
:10FB200030E08BE18093C6008091C00086FFFCCF5F
:10FB30008091C00080648093C000C15DDE4FF88179
:10FB4000CF52D140F093C6008091C00086FFFCCF19
:10FB50008091C00080648093C000432F3093C60022
:10FB60008091C00086FFFCCF8091C00080648093AC
:10FB7000C000922F2093C6008091C00086FFFCCF6A
:10FB80008091C00080648093C0008EE08093C600A6
:10FB90008091C00086FFFCCF8091C000806480937C
:10FBA000C00065E1C15DDE4FE880CF52D1406E25D7
:10FBB00069276427FE01319610C090819093C6009A
:10FBC0008091C00086FFFCCF31968091C000806498
:10FBD0008093C0006927215030402115310569F715
:10FBE0006093C6008091C00086FFFCCF8091C0006A
:10FBF00080648093C00085B1805885B9772081F4F6
:10FC0000C15DDE4F0881CF52D1400F5FC15DDE4F35
:10FC10000883CF52D14090E0A0E0B0E00D941AF4F8
:10FC200027982F9880E090E020ED37E0F901319798
:10FC3000F1F7019684369105C9F700008091C00064
:10FC40008D7F8093C00081E180935700E895EE2777
:10FC5000FF270994FFCF90E00D941AF497FB092E2B
:10FC600007260AD077FD04D02ED006D000201AF443
:10FC7000709561957F4F0895F6F7909581959F4F08
:10FC80000895A1E21A2EAA1BBB1BFD010DC0AA1FDD
:10FC9000BB1FEE1FFF1FA217B307E407F50720F0F5
:10FCA000A21BB30BE40BF50B661F771F881F991F70
:10FCB0001A9469F760957095809590959B01AC01B9
:10FCC000BD01CF010895AA1BBB1B51E107C0AA1FAC
:10FCD000BB1FA617B70710F0A61BB70B881F991FED
:10FCE0005A95A9F780959095BC01CD010895F99991
:10FCF000FECF92BD81BDF89A992780B50895262F31
:10FD0000F999FECF1FBA92BD81BD20BD0FB6F89400
:0EFD1000FA9AF99A0FBE01960895F894FFCF63
:00000001FF
