:1000000011C100003FC100003DC100003BC1000024
:1000100039C1000037C1000035C1000033C1000004
:1000200031C100002FC100002DC100002BC1000014
:1000300029C1000027C1000025C1000023C1000024
:1000400021C100001FC100001DC100001BC1000034
:1000500019C1000017C1000015C100002DC4000027
:1000600011C10000F3C30000C8C300000BC10000B1
:1000700009C1000007C1000005C1000003C1000064
:1000800001C10000FFC00000FDC00000FBC0000077
:10009000F9C00000F7C00000F5C00000F3C0000088
:1000A000F1C00000EFC00000EDC00000EBC0000098
:1000B000E9C00000E7C00000E5C00000E3C00000A8
:1000C000E1C00000DFC00000DDC00000DBC00000B8
:1000D000D9C00000D7C00000D5C00000D3C00000C8
:1000E000D1C0000005A84CCDB2D44EB93836A90213
:1000F0000C50B9918688083CA6AAAA2ABE00000026
:10010000803F00000A0B02090C0D0E0807030401D2
:1001100000000000000000000000000000000000DF
:1001200000000000000000000000000000001211AC
:1001300010000000000000000000000000000000AF
:100140000000000000000000000020002300260046
:1001500029002C002F0032000001000003010601DD
:10016000090100002200250028002B002E0031008C
:10017000340002010000050108010B01000021000C
:10018000240027002A002D00300033000101000068
:10019000040107010A010505050507050808080807
:1001A000020202020A0A080804040404010101010F
:1001B000010101010303030303030303040707070A
:1001C0000C0C0C0C0C0C0C0C0202020206060606AF
:1001D000060606060B0B0B0B0B0B0B0B010210207C
:1001E000200808102040102040800201020108046D
:1001F0000201010204081020408080402010080401
:100200000201800402018040201008040201080459
:10021000020101020408102040800102040810209D
:100220004080980811241FBECFEFD1E2DEBFCDBFC2
:1002300000E00CBF12E0A0E0B2E0ECE5F6E100E087
:100240000BBF02C007900D92A633B107D9F72AE081
:10025000A6E3B2E001C01D92AC33B207E1F711E0B2
:10026000C2E1D1E000E006C021970109802FFE0124
:100270000E94240BC131D10780E00807A9F7ABD356
:100280000C942C0BBDCECF93DF9390E0FC01E45295
:10029000FE4F24918A569E4FFC0184918823C1F021
:1002A00090E0880F991FFC01E458FE4FC591D4914E
:1002B000FC01EE59FE4FA591B4919FB7F894888147
:1002C000E22FE0958E2388838C91E823EC939FBFE7
:1002D000DF91CF910895AF92BF92CF92DF92EF92CC
:1002E000FF920F931F93CF93DF936C017B018B01E0
:1002F000040F151FEB015E01AE18BF08C017D10730
:1003000059F06991D601ED91FC910190F081E02DB9
:10031000C6011995892B79F7C501DF91CF911F91FE
:100320000F91FF90EF90DF90CF90BF90AF90089526
:10033000FC01538D448D252F30E0842F90E0821BEB
:10034000930B541710F0CF96089501970895FC0170
:10035000918D828D981761F0A28DAE0FBF2FB11DC8
:100360005D968C91928D9F5F9F73928F90E0089520
:100370008FEF9FEF0895FC01918D828D981731F0DA
:10038000828DE80FF11D858D90E008958FEF9FEF2E
:100390000895FC01918D228D892F90E0805C9F4F04
:1003A000821B91098F73992708958FE999E0F1DFF6
:1003B00021E0892B09F420E0822F0895FC01A48D0F
:1003C000A80FB92FB11DA35ABF4F2C91848D90E077
:1003D00001968F739927848FA689B7892C93A0895A
:1003E000B1898C91837080648C93938D848D9813E4
:1003F00006C00288F389E02D80818F7D8083089577
:10040000EF92FF920F931F93CF93DF93EC0181E064
:10041000888F9B8D8C8D98131AC0E889F98980810B
:1004200085FF15C09FB7F894EE89FF896083E8893E
:10043000F98980818370806480839FBF81E090E030
:10044000DF91CF911F910F91FF90EF900895F62EBD
:100450000B8D10E00F5F1F4F0F731127E02E8C8D57
:100460008E110BC00FB607FCFACFE889F98980819D
:1004700085FFF5CFCE01A2DFF2CFEB8DEC0FFD2F84
:10048000F11DE35AFF4FF0829FB7F8940B8FEA8972
:10049000FB8980818062D0CFCF93DF93EC01888D80
:1004A0008823B1F0AA89BB89E889F9898C9185FDF7
:1004B00003C0808186FD0CC00FB607FCF7CF8C917E
:1004C00085FFF2CF808185FFEDCFCE0177DFEACFC8
:1004D000DF91CF91089580E090E0892B21F065DFD6
:1004E00081110E94000080E090E0892B49F080E0BB
:1004F00090E0892B29F00E94000081110E940000E9
:1005000080E090E0892B49F080E090E0892B29F091
:100510000E94000081110E94000080E090E0892B81
:1005200049F080E090E0892B29F00E9400008111C1
:100530000C94000008958150823108F05AC0E82FD1
:10054000F0E08827E955FD4F8F4F0C94240BC7022C
:10055000CB02B902BF02C302F902CE02D402D80212
:10056000DE02E202E602EC02F002F902F402FA0212
:10057000FE02809180008F778093800008958091A3
:1005800080008F7DF9CF80918000877FF5CF84B583
:100590008F7784BD089584B58F7DFBCF8091B000A7
:1005A0008F778093B00008958091B0008F7DF9CF50
:1005B000809190008F7780939000089580919000B3
:1005C0008F7DF9CF80919000877FF5CF8091A0003B
:1005D0008F778093A00008958091A0008F7DF9CF40
:1005E0008091A000877FF5CF809120018F77809345
:1005F00020010895809120018F7DF9CF8091200105
:10060000877FF5CFCF93DF93282F30E0F901EE5F9E
:10061000FE4F8491F901E452FE4FD491F901EA565C
:10062000FE4FC491CC2399F0811185DFEC2FF0E0CF
:10063000EE0FFF1FE85BFE4FA591B491EC91ED2307
:1006400081E090E009F480E0DF91CF91089580E0AF
:1006500090E0FACF1F93CF93DF93282F30E0F9017A
:10066000EE5FFE4F8491F901E452FE4FD491F901FF
:10067000EA56FE4FC491CC23A1F0162F81115BDF07
:10068000EC2FF0E0EE0FFF1FEE59FE4FA591B49155
:100690008FB7F894EC91111108C0D095DE23DC934C
:1006A0008FBFDF91CF911F910895DE2BF8CF3FB719
:1006B000F89480913B0290913C02A0913D02B09150
:1006C0003E0226B5A89B05C02F3F19F00196A11D3B
:1006D000B11D3FBFBA2FA92F982F8827BC01CD018C
:1006E000620F711D811D911D42E0660F771F881FEB
:1006F000991F4A95D1F708958F929F92AF92BF921A
:10070000CF92DF92EF92FF92D2DF4B015C018AE041
:10071000C82ED12CE12CF12CCADF681979098A097D
:100720009B09683E734081059105B0F321E0C21A30
:10073000D108E108F10888EE880E83E0981EA11C1C
:10074000B11CC114D104E104F10431F7FF90EF9022
:10075000DF90CF90BF90AF909F908F900895FC0155
:1007600001900020E9F73197AF01481B590BBC01FC
:100770008FE999E0B0CD8F929F92AF92BF920F9385
:100780001F93CF93DF93CDB7DEB7A1970FB6F89441
:10079000DEBF0FBECDBF19A2423008F44AE08E0181
:1007A0000F5D1F4F842E912CB12CA12CA50194011B
:1007B00029D7E62FB901CA01EA30ECF4E05DD8018F
:1007C000EE938D01232B242B252B81F790E080E0E5
:1007D000109711F0CD01C3DFA1960FB6F894DEBFDC
:1007E0000FBECDBFDF91CF911F910F91BF90AF9002
:1007F0009F908F900895E95CE2CF1F920F920FB601
:100800000F9211240BB60F922F933F934F935F9348
:100810006F937F938F939F93AF93BF93EF93FF93C8
:100820008FE999E0CBDDFF91EF91BF91AF919F915F
:100830008F917F916F915F914F913F912F910F9089
:100840000BBE0F900FBE0F901F9018951F920F9226
:100850000FB60F9211240BB60F922F938F939F9385
:10086000EF93FF93E091AF09F091B0098081E0919F
:10087000B509F091B60982FD1DC090818091B8093B
:100880008F5F8F732091B909821741F0E091B80909
:10089000F0E0E156F64F958F8093B809FF91EF9104
:1008A0009F918F912F910F900BBE0F900FBE0F90C5
:1008B0001F9018958081F2CF1F920F920FB60F9262
:1008C00011242F933F938F939F93AF93BF93809166
:1008D000370290913802A0913902B0913A023091DA
:1008E000360223E0230F2D3758F50196A11DB11DC7
:1008F000209336028093370290933802A0933902F6
:10090000B0933A0280913B0290913C02A0913D024B
:10091000B0913E020196A11DB11D80933B029093C0
:100920003C02A0933D02B0933E02BF91AF919F91D4
:100930008F913F912F910F900FBE0F901F901895A0
:1009400026E8230F0296A11DB11DD2CFCF92DF92D0
:10095000EF92FF920F931F93E82FF92F05C00150DC
:1009600011092109310961F1908196239417B9F396
:1009700005C0015011092109310911F19081962317
:100980009413F7CFC12CD12CE12CF12C0AC08FEF9E
:10099000C81AD80AE80AF80A0C151D052E053F05E5
:1009A00079F080818623841791F36C2D7D2D8E2D17
:1009B0009F2D1F910F91FF90EF90DF90CF900895A2
:1009C00060E070E080E090E01F910F91FF90EF9069
:1009D000DF90CF900895CF93DF9300D01F92CDB7D3
:1009E000DEB7789484B5826084BD84B5816084BDAF
:1009F00085B5826085BD85B5816085BD80916E00BD
:100A0000816080936E0010928100809181008260ED
:100A1000809381008091810081608093810080912A
:100A200080008160809380008091B1008460809319
:100A3000B1008091B00081608093B00080919100FE
:100A400082608093910080919100816080939100F9
:100A5000809190008160809390008091A1008260DD
:100A60008093A1008091A10081608093A10080917A
:100A7000A00081608093A00080912101826080931A
:100A800021018091210181608093210180912001C9
:100A900081608093200180917A00846080937A0045
:100AA00080917A00826080937A0080917A008160E0
:100AB00080937A0080917A00806880937A00109207
:100AC000C100E091AF09F091B00982E08083E0912C
:100AD000AB09F091AC091082E091AD09F091AE093B
:100AE0008FEC80831092B709E091B309F091B409BB
:100AF00086E08083E091B109F091B2098081806144
:100B00008083E091B109F091B2098081886080838F
:100B1000E091B109F091B209808180688083E09111
:100B2000B109F091B20980818F7D80838AE0ABDBCF
:100B30008BE0A9DB8CE0A7DB87E0A5DB88E0A3DB0B
:100B400089E0A1DB85E09FDB86E09DDB82E09BDB2B
:100B500083E099DB22242394312C0091960910E044
:100B6000F801EB5EFD4FF08060E08F2D73DD83E0D8
:100B700090E00197F1F761E08F2D6CDD83E290E06A
:100B80000197F1F7F801EE5EFD4F808190E0FC01E6
:100B9000E452FE4F6491FC01EA56FE4FE491F0E00E
:100BA000EE0FFF1FE85BFE4F8591949100E412E485
:100BB0002FE030E0462FCADE6115710581059105F1
:100BC00029F06F5F7F4F8F4F9F4F9F701091960955
:100BD00079D347D3072E000C880B990B75D328E2E5
:100BE0003EE74CE05DE35DD420E030E040E05FE3D1
:100BF00058D46B017C0120E030E048EC52E44DD445
:100C000018160CF452C1C0929209D0929309E09246
:100C10009409F092950960919209709193098091DD
:100C20009409909195091DD36F3F760741F11130DA
:100C300009F498C108F446C1123009F4C7C1B7FCE1
:100C40001EC097FC1CC0C5019927B4E68B9E800D81
:100C5000911D1124FC0123E0F595E7952A95E1F714
:100C6000FF27E15CFD4F87709927910102C0220F99
:100C7000331F8A95E2F7C9019081892B808388E12F
:100C800092E06DDDC0909209D0909309E0909409B4
:100C9000F0909509A7019601C701B6016BD488238E
:100CA00009F4C6C186E292E05ADD82E392E057DDA4
:100CB00010919609E12FF0E0EB5EFD4F60E080813E
:100CC000C9DC123009F432C21F5F1093960985E027
:100CD00099DC892B09F453C085E094DC892BE1F77A
:100CE0000BDDC0909909D0909A09E0909B09F09093
:100CF0009C09C701B60138D469837A838B839C83AE
:100D000060919D0970919E09072E000C880B990B2C
:100D1000DBD22B013C0120E030E040EA50E4698165
:100D20007A818B819C81BDD39B01AC01C301B2014F
:100D30002DD297D270939E0960939D09C701B60189
:100D40008DD22B013C016091970970919809072E73
:100D5000000C880B990BB8D26B017C0120E030E0CD
:100D600040EA50E4C301B2019CD39B01AC01C7012E
:100D7000B6010CD276D2709398096093970986E0F9
:100D800041DC892B09F453C086E03CDC892BE1F778
:100D9000B3DCC0909909D0909A09E0909B09F0903B
:100DA0009C09C701B601E0D369837A838B839C8356
:100DB00060919D0970919E09072E000C880B990B7C
:100DC00083D22B013C0120E030E040EA50E469810D
:100DD0007A818B819C8165D39B01AC01C301B201F7
:100DE000D4D13FD270939E0960939D09C701B6018B
:100DF00035D22B013C016091970970919809072E1B
:100E0000000C880B990B60D26B017C0120E030E074
:100E100040EA50E4C301B20144D39B01AC01C701D5
:100E2000B601B3D11ED2709398096093970982E0FE
:100E3000E9DB892BD1F082E0E5DB892BE1F75CDC93
:100E40002BED3FE049EC5FE36091990970919A09BD
:100E500080919B0990919C0998D160939909709316
:100E60009A0980939B0990939C0983E0CBDB892BA3
:100E7000D1F083E0C7DB892BE1F73EDC2BED3FE0CF
:100E800049EC5FE36091990970919A0980919B09FF
:100E900090919C097BD16093990970939A098093F2
:100EA0009B0990939C0917DB58CE80E090E0A0E866
:100EB000BFEB8093920990939309A0939409B09308
:100EC0009509A9CE072E000C880B990BFDD16B015B
:100ED0007C014090990950909A0960909B0970900C
:100EE0009C09C301B20140D369837A838B839C83BD
:100EF00060919D0970919E09072E000C880B990B3B
:100F0000E3D14B015C0129813A814B815C81C701AE
:100F1000B601C7D29B01AC01C501B40137D1A1D143
:100F20005B01C301B2019AD12B013C016091970989
:100F300070919809072E000C880B990BC5D1698315
:100F40007A838B839C83A3019201C701B601A9D246
:100F50009B01AC0169817A818B819C8117D181D100
:100F60004B016DCE072E000C880B990BADD16B0198
:100F70007C014090990950909A0960909B0970906B
:100F80009C09C301B2016AD169837A838B839C83F4
:100F900060919D0970919E09072E000C880B990B9A
:100FA00093D14B015C0129813A814B815C81C7015E
:100FB000B60177D29B01AC01C501B401E7D051D194
:100FC0005B01C301B2019058CFD2AECF072E000C07
:100FD000880B990B79D16B017C0140909909509055
:100FE0009A0960909B0970909C09C301B20136D1A7
:100FF00069837A838B839C8360919D0970919E099C
:10100000072E000C880B990B5FD14B015C012981E5
:101010003A814B815C81C701B60143D29B01AC018F
:10102000C501B401B2D01DD15B01C301B201CCCF67
:1010300026013701E89477F82FEF3FEF4FE75FE79E
:10104000C301B20197D281110CC02FEF3FEF4FE7E0
:101050005FE7C301B201FED018161CF48AE292E0E9
:1010600023CE2FEF3FEF4FE75FE4C701B60115D264
:1010700018161CF48EE292E017CE2FEF3FEF4FE7E9
:101080005FECC701B601E6D087FDF4CF20E030E089
:10109000A901C701B601DED087FF08C06DE28FE964
:1010A00099E0AED9F7FAF094F7F8F0942AE037ED2A
:1010B00043EA5BE3C701B60169D02B013C01D6D0FE
:1010C0006B017C01FFD09B01AC01C301B2015DD07B
:1010D0002B013C014AE0C701B6014DDB6EE28FE90E
:1010E00099E08ED920E030E040E251E4C301B20142
:1010F000D8D12B013C01BAD06B01F12CE12C4AE094
:10110000C701B60138DBC701B601DCD09B01AC01D9
:10111000C301B2013AD020E030E040E251E4C1D155
:10112000A5D090E080E04AE026DBBFCD10E0CDCD39
:10113000EFE9F9E01382128288EE93E0A0E0B0E0DC
:1011400084839583A683B78384E092E09183808330
:1011500085EC90E09587848784EC90E0978786877C
:1011600080EC90E0918B808B81EC90E0938B828B74
:1011700082EC90E0958B848B86EC90E0978B868B4D
:10118000118E128E138E148E08955058BB27AA27E5
:101190000ED038C101D130F006D120F031F49F3F9C
:1011A00011F41EF4F6C00EF4E095E7FBECC0E92F55
:1011B0004BD180F3BA17620773078407950718F0BD
:1011C00071F49EF563C10EF4E0950B2EBA2FA02D9D
:1011D0000B01B90190010C01CA01A0011124FF27E4
:1011E000591B99F0593F50F4503E68F11A16F040DF
:1011F000A22F232F342F4427585FF3CF46953795DE
:101200002795A795F0405395C9F77EF41F16BA0BA2
:10121000620B730B840BBAF09150A1F0FF0FBB1F50
:10122000661F771F881FC2F70EC0BA0F621F731F99
:10123000841F48F4879577956795B795F7959E3FF6
:1012400008F0B3CF9395880F08F09927EE0F979584
:101250008795089574D008F481E00895ACD0E395A3
:10126000E2C004D06894B11112C10895F5D088F09D
:101270009F5790F0B92F9927B751A0F0D1F0660F82
:10128000771F881F991F1AF0BA95C9F712C0B1309D
:1012900081F0FCD0B1E00895F9C0672F782F88273E
:1012A000B85F39F0B93FCCF3869577956795B395DC
:1012B000D9F73EF490958095709561957F4F8F4F4B
:1012C0009F4F0895E89409C097FB3EF49095809550
:1012D000709561957F4F8F4F9F4F9923A9F0F92FFC
:1012E00096E9BB279395F695879577956795B7957A
:1012F000F111F8CFFAF4BB0F11F460FF1BC06F5F60
:101300007F4F8F4F9F4F16C0882311F096E911C071
:10131000772321F09EE8872F762F05C0662371F092
:1013200096E8862F70E060E02AF09A95660F771FA6
:10133000881FDAF7880F9695879597F90895990F82
:101340000008550FAA0BE0E8FEEF16161706E8078F
:10135000F907C0F012161306E407F50798F0621BB0
:10136000730B840B950B39F40A2661F0232B242B85
:10137000252B21F408950A2609F4A140A6958FEFA4
:10138000811D811D089597F99F6780E870E060E0F6
:1013900008959FEF80EC089500240A94161617060E
:1013A00018060906089500240A9412161306140656
:1013B00005060895EECF50D0E8F3E894E0E0BB27AF
:1013C0009F57F0F02AED3FE049EC06C0EE0FBB0F4F
:1013D000661F771F881F28F0B23A620773078407D9
:1013E00028F0B25A620B730B840BE3959A9572F74F
:1013F000803830F49A95BB0F661F771F881FD2F78D
:101400009048BEC0092E0394000C11F4882352F0BA
:10141000BB0F40F4BF2B11F460FF04C06F5F7F4F20
:101420008F4F9F4F0895EF93E0FF06C0A2EA2AED89
:101430003FE049EC5FEBBBDEE5DF0F90039401FC7E
:101440009058E4EEF0E0A8C057FD9058440F551FA7
:1014500059F05F3F71F04795880F97FB991F61F036
:101460009F3F79F087950895121613061406551FAD
:10147000F2CF4695F1DF08C0161617061806991F19
:10148000F1CF86957105610508940895E894BB270E
:1014900066277727CB0197F9089551DF08F48FEF7E
:1014A00008950BD0AFCF78DF28F07DDF18F09523BB
:1014B00009F069CF6ECF1124EACFC6DFA0F3959F64
:1014C000D1F3950F50E0551F629FF001729FBB272B
:1014D000F00DB11D639FAA27F00DB11DAA1F649FD7
:1014E0006627B00DA11D661F829F2227B00DA11D8A
:1014F000621F739FB00DA11D621F839FA00D611D10
:10150000221F749F3327A00D611D231F849F600D30
:10151000211D822F762F6A2F11249F5750408AF069
:10152000E1F088234AF0EE0FFF1FBB1F661F771FF5
:10153000881F91505040A9F79E3F510570F023CF6E
:10154000A6CF5F3FECF3983EDCF3869577956795E1
:10155000B795F795E7959F5FC1F7FE2B880F911D13
:101560009695879597F908959F9325DF0F9007FC2F
:10157000EE5F59CFE4DE880B990B08959F3F31F061
:10158000915020F4879577956795B795880F911DB1
:101590009695879597F908959F938F937F936F936F
:1015A000FF93EF939B01AC017CDFEF91FF9105D09E
:1015B0002F913F914F915F9174CFDF93CF931F9302
:1015C0000F93FF92EF92DF927B018C01689405C02C
:1015D000DA2EEF0172DFFE01E894A5912591359195
:1015E00045915591AEF3EF01E2DDFE019701A801AF
:1015F000DA9479F7DF90EF90FF900F911F91CF91E0
:10160000DF910895A1E21A2EAA1BBB1BFD010DC09C
:10161000AA1FBB1FEE1FFF1FA217B307E407F507A2
:1016200020F0A21BB30BE40BF50B661F771F881F7E
:10163000991F1A9469F760957095809590959B0114
:10164000AC01BD01CF010895EE0FFF1F881F8BBFB6
:0C1650000790F691E02D1994F894FFCF5C
:10165C000000000000026B0198014C02C901A701B7
:10166C00BB010708090A0B0C44697374616E63654E
:10167C00206973203D006E616E00696E66006F76A6
:06168C0066000D0A0000DB
:00000001FF
