:100000000C946A010C94F10E0C94C60E0C949B0E89
:100010000C94700E0C94450E0C941A0E0C94EF0D6B
:100020000C94C40D0C949B010C949B010C949B01AB
:100030000C949B010C949B010C949B010C949B01D0
:100040000C949B010C949B010C949B010C949B01C0
:100050000C949B010C949B010C949B010C947A0DC5
:100060000C949B010C94440D0C941A0D0C949B0160
:100070000C949B010C949B010C949B010C949B0190
:100080000C949B010C949B010C949B010C949B0180
:100090000C949B010C949B010C949B010C949B0170
:1000A0000C949B010C949B010C949B010C949B0160
:1000B0000C949B010C949B010C949B010C949B0150
:1000C0000C949B010C949B010C949B010C949B0140
:1000D0000C949B010C949B010C949B010C949B0130
:1000E0000C949B0105A84CCDB2D44EB93836A90268
:1000F0000C50B9918688083CA6AAAA2ABE00000026
:10010000803F0C9458040C9487030C94FE010C94CB
:100110008B030C940C040C946B030C943A030C9416
:100120002A040C947D030C9461030C945B030C94DF
:1001300067040C9432040C9479030C943A040C94E4
:100140006F030C944E040C9444040C9407040C9418
:1001500071040C94FF030C94D1010C9454030C947F
:10016000D0010C9435030C944C030C9485040C942E
:10017000B4020C947B040C9481030C94D7030C946C
:1001800065030C94AB010C9450030C948F040C94F5
:1001900021020C9473030C9414140C9416040C9404
:1001A00020040C942F020C940D020C9458030C9410
:1001B000670200002100240027002A002D003000E3
:1001C000330001010000040107010A0100002200C0
:1001D000250028002B002E00310034000201000011
:1001E000050108010B0100000A0B02090C0D0E08A5
:1001F00007030401000000000000000000000000F0
:1002000000000000000000000000000000000000EE
:1002100000001211100000000000000000000000AB
:1002200000000000000000000000000000002000AE
:100230002300260029002C002F00320000010000BE
:100240000301060109010505050507050808080859
:10025000020202020A0A080804040404010101015E
:100260000101010103030303030303030407070759
:100270000C0C0C0C0C0C0C0C0202020206060606FE
:10028000060606060B0B0B0B0B0B0B0B01021020CB
:1002900020080810204010204080020102010804BC
:1002A0000201010204081020408080402010080450
:1002B00002018004020180402010080402010804A9
:1002C00002010102040810204080010204081020ED
:1002D0004080141411241FBECFEFD1E2DEBFCDBF8A
:1002E00000E00CBF13E0A0E0B2E0E2E4F1E300E0E4
:1002F0000BBF02C007900D92A439B107D9F727E0D0
:10030000A4E9B3E001C01D92A931B207E1F711E001
:10031000CAE6D1E000E006C021970109802FFE0166
:100320000E944F17C936D10780E00807A9F70E943D
:10033000610F0C949F180C9400008BEA91E090934D
:10034000050280930402EAE6F0E080818C7F816000
:100350008083EC9A08958091580590915905A09159
:100360005A05B0915B050196A11DB11D80935805FA
:1003700090935905A0935A05B0935B05809156055B
:1003800090915705019690935705809356050895CF
:10039000EC9880ED91E0909305028093040208951B
:1003A0000895AF92BF92CF92DF92EF92FF920F9398
:1003B0001F93CF93DF936C017B018B01040F151FFB
:1003C000EB015E01AE18BF08C017D10759F0699163
:1003D000D601ED91FC910190F081E02DC6011995B7
:1003E000892B79F7C501DF91CF911F910F91FF9074
:1003F000EF90DF90CF90BF90AF900895FC01538DA8
:10040000448D252F30E0842F90E0821B930B5417EE
:1004100010F0CF96089501970895FC01918D828D7B
:10042000981761F0A28DAE0FBF2FB11D5D968C9114
:10043000928D9F5F9F73928F90E008958FEF9FEF53
:100440000895FC01918D828D981731F0828DE80F0F
:10045000F11D858D90E008958FEF9FEF0895FC01C9
:10046000918D228D892F90E0805C9F4F821B910996
:100470008F739927089588E796E00E942F0221E064
:10048000892B09F420E0822F0895FC01A48DA80F88
:10049000B92FB11DA35ABF4F2C91848D90E00196C6
:1004A0008F739927848FA689B7892C93A089B189E6
:1004B0008C91837080648C93938D848D981306C087
:1004C0000288F389E02D80818F7D80830895EF92EB
:1004D000FF920F931F93CF93DF93EC0181E0888FFE
:1004E0009B8D8C8D98131AC0E889F989808185FFCE
:1004F00015C09FB7F894EE89FF896083E889F98970
:1005000080818370806480839FBF81E090E0DF9171
:10051000CF911F910F91FF90EF900895F62E0B8DC4
:1005200010E00F5F1F4F0F731127E02E8C8D8E117F
:100530000CC00FB607FCFACFE889F989808185FFE6
:10054000F5CFCE010E944502F1CFEB8DEC0FFD2FD0
:10055000F11DE35AFF4FF0829FB7F8940B8FEA89A1
:10056000FB8980818062CFCFCF93DF93EC01888DB0
:100570008823B9F0AA89BB89E889F9898C9185FD1E
:1005800003C0808186FD0DC00FB607FCF7CF8C91AC
:1005900085FFF2CF808185FFEDCFCE010E9445021D
:1005A000E9CFDF91CF91089580E090E0892B29F089
:1005B0000E943B0281110E94000080E090E0892BA4
:1005C00049F080E090E0892B29F00E940000811121
:1005D0000E94000080E090E0892B49F080E090E0EC
:1005E000892B29F00E94000081110E94000080E008
:1005F00090E0892B49F080E090E0892B29F00E945F
:10060000000081110C9400000895282F30E0F901BA
:10061000EA51FE4F9491F901E457FD4F44912A5B52
:100620003D4FF9012491222309F435C0992311F19A
:1006300091509231F8F4E92FF0E08827ED5DFC4FFE
:100640008F4F0C944F175403580335034C0350033A
:100650003A035B03610365036B036F037303790361
:100660007D033A03810387038B03809180008F779A
:1006700080938000E22FF0E0EE0FFF1FE453FE4F67
:10068000A591B4918FB7F894EC91611148C0409551
:100690004E234C938FBF0895809180008F7DE8CFCB
:1006A00080918000877FE4CF84B58F7784BDE2CFCF
:1006B00084B58F7DFBCF8091B0008F778093B000A1
:1006C000D9CF8091B0008F7DF9CF809190008F7746
:1006D00080939000CFCF809190008F7DF9CF809153
:1006E0009000877FF5CF8091A0008F778093A00046
:1006F000C1CF8091A0008F7DF9CF8091A000877F2E
:10070000F5CF809120018F7780932001B3CF809126
:1007100020018F7DF9CF80912001877FF5CF4E2B6F
:10072000B8CFCF93DF9390E0FC01E457FD4F2491C5
:100730008A5B9D4FFC0184918823C9F090E0880F6B
:10074000991FFC01EE54FE4FA591B491FC01E453B6
:10075000FE4FC591D49161110DC09FB7F8948C9153
:10076000209582238C938881282328839FBFDF9143
:10077000CF910895623051F49FB7F8943C91822F45
:10078000809583238C93E8812E2BEFCF8FB7F8943D
:10079000EC912E2B2C938FBFEACF1F93CF93DF9337
:1007A000182FEB0161E00E949103209739F460E07B
:1007B000812FDF91CF911F910C940503E12FF0E081
:1007C000EA51FE4FE491E150E23188F7F0E08827EA
:1007D000E351FC4F8F4F0C944F17FF0307040C0499
:1007E00016042004D7032A0432043A0444044E04B5
:1007F000580467047104D7037B0485048F0484B50F
:10080000806884BDC7BDDF91CF911F91089584B5E5
:10081000806284BDC8BDF7CF8091800080688093DE
:100820008000D0938900C0938800EDCF8091800034
:10083000806280938000D0938B00C0938A00E3CFC6
:1008400080918000886080938000D0938D00C09359
:100850008C00D9CF8091B00080688093B000C093A5
:10086000B300D1CF8091B00080628093B000C0937C
:10087000B400C9CF80919000806880939000D0939D
:100880009900C0939800BFCF8091900080628093C0
:100890009000D0939B00C0939A00B5CF80919000B8
:1008A000886080939000D0939D00C0939C00ABCF54
:1008B0008091A00080688093A0008091A0008F7B31
:1008C0008093A000D093A900C093A8009CCF8091F2
:1008D000A00080628093A000D093AB00C093AA00D8
:1008E00092CF8091A00088608093A000D093AD004B
:1008F000C093AC0088CF8091200180688093200154
:10090000D0932901C09328017ECF8091200180627D
:1009100080932001D0932B01C0932A0174CF809142
:100920002001886080932001D0932D01C0932C0179
:100930006ACF2FB7F894609161057091620580913C
:100940006305909164052FBF08950F931F93CF9374
:10095000DF938C010E9499040E94C80110925705F0
:10096000109256050E949D01D0E0C0E0809165057F
:1009700090916605C817D907A4F50130110519F53E
:1009800061E087E00E94050360E086E00E940503C5
:1009900060E085E00E94050361E084E00E940503B9
:1009A00069E370E08AE00E94CD0369E370E089E0CA
:1009B0000E94CD030E94C801C0915605D0915705F1
:1009C0000E949D01D3CF60E087E00E94050361E0B3
:1009D00086E00E94050361E085E00E94050360E077
:1009E000DCCF61E087E00E94050361E086E00E94C1
:1009F000050361E085E00E94050361E084E00E9458
:100A0000050370E060E08AE00E94CD0370E060E0E2
:100A100089E00E94CD030E94C801109257051092F0
:100A20005605DF91CF911F910F910C949D0124EEFB
:100A30003BEC46E951E40E94B81420E030E040E28B
:100A400052E40E9456160E942A1570936605609320
:100A500065050895CF92DF92EF92FF920F931F9357
:100A6000CF93DF9300D01F921F92CDB7DEB76C01FA
:100A70007B011A832B832A813B813370C90164E196
:100A800070E00E941917F601E61BF70B1E161F06F1
:100A90001CF0FB01EC19FD09C90164E170E00E9442
:100AA00019179701281B390B121613061CF09C010D
:100AB0002E193F09CF01820F931F0F900F900F90B7
:100AC0000F900F90DF91CF911F910F91FF90EF90BA
:100AD000DF90CF900895449738F46F3F760721F068
:100AE00081E06431710509F480E090E00895CF93CE
:100AF000DF9300D01F921F92CDB7DEB749835A8390
:100B00006B837C838D8380910002909101028A35F2
:100B10009105E1F00196909301028093000225E097
:100B2000289FD001299FB00D1124AC56BC4FFE0167
:100B3000319601900D922A95E1F781E00F900F9088
:100B40000F900F900F90DF91CF91089580E0F6CF36
:100B500020910002309101022F3F3207C9F045E099
:100B6000429FF001439FF00D1124EC56FC4F418150
:100B70005281DC0112965C934E93119740814C9305
:100B800021503109309301022093000281E0089541
:100B900080E008956F927F928F929F92AF92BF9262
:100BA000CF92DF92EF92FF920F931F93CF93DF9339
:100BB000CDB7DEB72F970FB6F894DEBF0FBECDBF0F
:100BC0008C013F834887DC86ED868F819885937002
:100BD00024E130E0B9010E9419174B01FC018C851A
:100BE0009D859370B9010E9419176B015C0174E631
:100BF000672EA5E07A2EB4E1EB2EF12C8C149D0427
:100C000021F4EA15FB0509F448C0689CC001699C01
:100C1000900D11244801880E991E7E9EC0017F9E72
:100C2000900D1124880E991EF4014081518162813A
:100C3000738184810E947705F40121813281F90159
:100C4000F370CF01B7010E9419174B01232F330F07
:100C5000330B25952595237033272115310531F068
:100C60002130310569F481E0881A9108CF01B7017C
:100C70000E941917FC012115310549F43196BECFA8
:100C80002230310599F38FEF881A980AEFCF22307E
:100C9000310509F0B3CF3197B1CF24E6289DC001CB
:100CA000299D900D1124080F191F25E02E9FC001CA
:100CB0002F9F900D1124F801E80FF91F40815181F9
:100CC0006281738184810E947705CE0101960E9422
:100CD000A8050FE615E094E1E92EF12C2CE4B22EE4
:100CE00032E5A32E45E5942E54E4852EF801EF5607
:100CF000F54080910002909101020196C1F4E15902
:100D0000FA4F10822F960FB6F894DEBF0FBECDBFFC
:100D1000DF91CF911F910F91FF90EF90DF90CF90D7
:100D2000BF90AF909F908F907F906F900895CE016D
:100D300001960E94A8052A813B81690183E0D8229F
:100D4000C601B7010E941917232F330F330B2595C6
:100D5000259523703327CB012115310521F0213052
:100D60003105D1F40197FB01E81BF90BC601B7016E
:100D70000E94191721153105A1F49C012F5F3F4FE7
:100D8000821B930BE130F105A9F4892B11F5F801D1
:100D900080820F5F1F4FAACF2230310521F30196C9
:100DA000E2CF2230310521F49C0121503109E8CFF6
:100DB0009C01E6CFEF3FFE0729F4892B51F4F8019F
:100DC0009082E7CFEF2B29F4019719F4F801A08264
:100DD000E0CFF801B082DDCF24E1629F400D112405
:100DE000242F269526952695820F911DFC01808142
:100DF00090E0477002C0959587954A95E2F781701B
:100E00000895FC012181328122273C7FA4E1A69F25
:100E1000F001A79FF00D11244E0F5F1F422B532BA3
:100E2000FC015283418308958F929F92AF92BF92AB
:100E3000CF92DF92EF92FF926C010E9499044B01D6
:100E4000770FAA08BB080D2C000CEE08FF080E94C3
:100E50009904681979098A099B096C157D058E0525
:100E60009F05A8F3FF90EF90DF90CF90BF90AF90D9
:100E70009F908F900895FC0101900020E9F7319731
:100E8000AF01481B590BBC0188E796E00C94D101D7
:100E90008F929F92AF92BF920F931F93CF93DF9346
:100EA000CDB7DEB7A1970FB6F894DEBF0FBECDBFAA
:100EB00019A2423008F44AE08E010F5D1F4F842EC4
:100EC000912CB12CA12CA50194010E942D17E62F85
:100ED000B901CA01EA30F4F4E05DD801EE938D0166
:100EE000232B242B252B79F790E080E0109719F025
:100EF000CD010E943B07A1960FB6F894DEBF0FBE4E
:100F0000CDBFDF91CF911F910F91BF90AF909F9078
:100F10008F900895E95CE1CF0C943B07CF93DF936A
:100F20000E943B07EC018CE292E00E943B078C0F91
:100F30009D1FDF91CF9108958FE292E00E948E076E
:100F400060E070E084E192E40E94170581E090E0A7
:100F50000C94A50480E492E00E948E0760E070E0AB
:100F600084E192E40E9417058FEF9FEF0C94A50493
:100F7000CF93DF9380E592E00E948E0760E070E0FF
:100F800080EA90E40E9417050E9499040E94C8011B
:100F900010925705109256050E949D01D0E0C0E0C6
:100FA000809165059091660561E0C817D90714F531
:100FB00087E00E94050360E086E00E94050361E08F
:100FC00085E00E94050360E084E00E94050369E378
:100FD00070E08AE00E94CD0369E370E089E00E943E
:100FE000CD030E94C801C0915605D09157050E94BB
:100FF0009D01D6CF87E00E94050361E086E00E9454
:10100000050361E085E00E94050361E084E00E9441
:10101000050370E060E08AE00E94CD0370E060E0CC
:1010200089E00E94CD030E94C801109257051092DA
:101030005605DF91CF910C949D01CF92DF92EF92F4
:10104000FF92CF93DF936C01990FEE08FF08F7FE34
:1010500019C06DE288E796E00E946702EC016627FE
:101060007727CB016C197D098E099F094AE00E9400
:1010700048078C0F9D1FDF91CF91FF90EF90DF907D
:10108000CF9008954AE0C701B601DF91CF91FF905C
:10109000EF90DF90CF900C944807CF92DF92EF92C1
:1010A000FF921F93CF93DF937C016B01142FDC0120
:1010B000CD91DC9165E070E081E090E00E945717EF
:1010C000FC01D282C182108314821382209759F4CA
:1010D000D701ED93FC93DF91CF911F91FF90EF909B
:1010E000DF90CF9008958881181720F4D483C383AC
:1010F000EFCFED01AB81BC81109719F08C911817DF
:10110000C0F7B483A383FC83EB83E5CF2F923F9298
:101110004F925F926F927F928F929F92AF92BF9207
:10112000CF92DF92EF92FF920F931F93CF93DF93B3
:10113000CDB7DEB7C251D8400FB6F894DEBF0FBEB0
:10114000CDBFC95FD74F4883C750D840C85FD74F7E
:101150005883C850D840C75FD74F6883C950D8401C
:10116000C65FD74F7883CA50D840C55FD74F8883B2
:10117000CB50D840C45FD74FE882CC50D840C35F33
:10118000D74FF882CD50D840C25FD74F0883CE509A
:10119000D840C15FD74F1883CF50D840C05FD74FDA
:1011A0002883C051D840C85FD74F88809980C850E5
:1011B000D840C401937004E110E0B8010E941917EF
:1011C0007B016C01BC01C7010E946B05892B91F06A
:1011D000C35FD74F88819981CD50D8409370B801B3
:1011E0000E9419172B011C01BC01C2010E946B0552
:1011F000892B29F483E692E00E948E0729C14C2DA9
:101200006E2D81E496E00E94EC06882309F43AC131
:10121000422D642D81E496E00E94EC06882309F4B7
:1012200031C1E414F50409F430C1C95FD74F7880A7
:10123000C750D8409E012F52384FCF5ED74F3983C9
:101240002883C151D84084E3F90111928A95E9F7C6
:10125000CE0101965C014AEFFC0130E020E04083C2
:1012600012821182148213822F5F3F4F35962431F0
:101270003105A9F78C599F4FCF5ED74F288139810F
:10128000C151D8402817390739F7C45FD74F0881B3
:10129000CC50D840C35FD74F1881CD50D840C25FE3
:1012A000D74F2881CE50D840C15FD74F3881CF501B
:1012B000D840C05FD74F4881C051D840B601C70160
:1012C0000E942A0595E09C9DF0019D9DF00D112442
:1012D00094E69E9D90019F9D300D1124E20FF31F17
:1012E000EA0DFB1D8083A601B701CF010E94010713
:1012F00065E070E081E090E00E945717FC01928267
:101300008182708214821382CB5FD74F9983888346
:10131000C550D840CB5FD74F88819981C550D84000
:10132000009709F484C3FC01018112812381348177
:10133000CB5FD74F39832883C550D8400E940F1800
:10134000C801937064E170E00E9419177B016C0181
:10135000F4E1F69F800D1124E82FE695E695E695D9
:1013600021ED37E02C0F3D1F2E0F311DF901877045
:1013700021E030E001C0220F8A95EAF78081822BBC
:1013800080834B0131E0831A9108B601C4010E94A9
:101390006B05019709F011C14814590409F07CC08C
:1013A0002C143D0409F078C084E6849D8001859D5D
:1013B000100D112425E0229DC001239D900D1124C4
:1013C000080F191F0A0D1B1DA101B201C8010E94BF
:1013D0000107F801818192819C609283818387EC6F
:1013E00092E00E948E07C95FD74FC880C750D8408F
:1013F000C85FD74FD880C850D840C75FD74FE88064
:10140000C950D840C65FD74FF880CA50D840C55F92
:10141000D74F0881CB50D840C45FD74F2881CC50DC
:10142000D840C35FD74F3881CD50D840C25FD74F27
:101430004881CE50D840C15FD74F5881CF50D84057
:10144000C05FD74F6881C051D840C5010E94CA050E
:10145000CE5ED74F0FB6F894DEBF0FBECDBFDF9183
:10146000CF911F910F91FF90EF90DF90CF90BF90A1
:10147000AF909F908F907F906F905F904F903F9034
:101480002F9008958EE792E0B7CE84EA92E0C214DE
:10149000D30409F0CACEB0CE4C2D6FEF6E0DCE0145
:1014A0008F52984F0E94EC06811187C04C2D682DF9
:1014B00081E496E00E94EC06813009F07EC0C45FB2
:1014C000D74F0881CC50D840C35FD74F1881CD503B
:1014D000D840C25FD74F2881CE50D840C15FD74F88
:1014E0003881CF50D840C05FD74F4881C051D840D5
:1014F000B601C7010E942A053C01C25FD74F28816F
:10150000CE50D840C15FD74F3881CF50D840C05F50
:10151000D74F4881C051D840B601C4010E942A0566
:10152000F5E0FC9D9001FD9D300D112444E64E9D9B
:10153000F0014F9DF00D1124E20FF31FEA0DFB1D8A
:10154000008110E0061917090F5F1F4F080F191FC0
:10155000489DF001499DF00D1124E20FF31FEA0DA3
:10156000FB1D80818A3F21F08017110631F12CF19B
:1015700085E08C9D30018D9D700C1124E4E6E89D82
:10158000C001E99D900D1124680E791E6A0C7B1C28
:10159000F3010083818192819C6092838183A60103
:1015A000B401C3010E940107F30161817281402FE0
:1015B000CE018B5F974F0E944D084701FFEF8F1AB6
:1015C0009F0AB601C4010E946B05019709F0B3C0E0
:1015D00048145904F1F42C143D04D9F484E6849D94
:1015E0008001859D100D112425E0229DC001239DC1
:1015F000900D1124080F191F0A0D1B1DA101B20126
:10160000C8010E940107F80181819281937F946053
:10161000E4CE4C2D61E06E0DCE018F52984F0E94AA
:10162000EC06811188C04C2D682D81E496E00E9463
:10163000EC06813009F07FC0C45FD74F0881CC50E1
:10164000D840C35FD74F1881CD50D840C25FD74F25
:101650002881CE50D840C15FD74F3881CF50D84075
:10166000C05FD74F4881C051D840B601C7010E9422
:101670002A053C01C25FD74F2881CE50D840C15FB8
:10168000D74F3881CF50D840C05FD74F4881C05125
:10169000D840B601C4010E942A05F5E0FC9D9001E6
:1016A000FD9D300D112444E64E9DF0014F9DF00D3F
:1016B0001124E20FF31FEA0DFB1D008110E0061953
:1016C00017090F5F1F4F080F191F489DF001499D13
:1016D000F00D1124E20FF31FEA0DFB1D80818A3FFC
:1016E00021F08017110639F134F185E08C9D30012D
:1016F0008D9D700C1124E4E6E89DC001E99D900DDC
:101700001124680E791E6A0C7B1CF3010083818111
:101710009281937F946092838183A601B401C30177
:101720000E940107F30161817281402FCE018B5F1E
:10173000974F0E944D084601FFEF8F1A9F0AB40190
:10174000C7010E946B05019709F0B2C04E145F04F7
:10175000F1F428143904D9F484E6849D8001859D30
:10176000100D112425E0229DC001239D900D112410
:10177000080F191F0A0D1B1DA101B201C8010E940B
:101780000107F80181819281937F986026CE41E024
:101790004C0D6E2DCE018F52984F0E94EC06811198
:1017A00087C0482D6E2D81E496E00E94EC068130C2
:1017B00009F07EC0C45FD74F0881CC50D840C35FCA
:1017C000D74F1881CD50D840C25FD74F2881CE5017
:1017D000D840C15FD74F3881CF50D840C05FD74F76
:1017E0004881C051D840B601C7010E942A053C017A
:1017F000C25FD74F2881CE50D840C15FD74F3881C4
:10180000CF50D840C05FD74F4881C051D840B401B5
:10181000C7010E942A0525E02C9DF0012D9DF00DA9
:10182000112444E64E9D90014F9D300D1124E20F8E
:10183000F31FEA0DFB1D008110E0061917090F5F69
:101840001F4F080F191F85E0889DF001899DF00D3D
:101850001124E20FF31FEA0DFB1D80818A3F21F066
:101860008017110629F124F195E0989D3001999D8A
:10187000700C1124E4E6EE9DC001EF9D900D112443
:10188000680E791E6A0C7B1CF3010083A401B7016A
:10189000C3010E940107F30161817281737F786047
:1018A00072836183402FCE018B5F974F0E944D085A
:1018B0004601F1E08F1A9108B401C7010E946B053F
:1018C000019709F027CD4E145F04E9F42814390478
:1018D000D1F485E0829D8001839D100D112424E6C2
:1018E000249DC001259D900D1124080F191F0A0D7C
:1018F0001B1DA101B201C8010E940107F8018181ED
:101900009281937F6ACD4FEF4C0D6E2DCE018F5299
:10191000984F0E94EC068111FDCC482D6E2D81E47C
:1019200096E00E94EC06813009F0F4CCC45FD74FFA
:101930000881CC50D840C35FD74F1881CD50D840D4
:10194000C25FD74F2881CE50D840C15FD74F388172
:10195000CF50D840C05FD74F4881C051D840B60162
:10196000C7010E942A053C01C25FD74F2881CE5093
:10197000D840C15FD74F3881CF50D840C05FD74FD4
:101980004881C051D840B401C7010E942A0525E012
:101990002C9DF0012D9DF00D112444E64E9D9001EB
:1019A0004F9D300D1124E20FF31FEA0DFB1D008146
:1019B00010E0061917090F5F1F4F080F191F85E068
:1019C000889DF001899DF00D1124E20FF31FEA0DAF
:1019D000FB1D80818A3F29F08017110609F00CF465
:1019E00099CC95E0989D6001999DD00C1124E4E676
:1019F000EE9DC001EF9D900D1124C80ED91ECA0C9A
:101A0000DB1CF601008381819281937F9283818325
:101A1000A401B701C6010E940107F601618172812C
:101A2000402FCE018B5F974F0E944D0873CC86EEFE
:101A300092E0E2CB1F920F920FB60F9211240BB6D9
:101A40000F922F933F934F935F936F937F938F9357
:101A50009F93AF93BF93EF93FF9388E796E00E9425
:101A60004502FF91EF91BF91AF919F918F917F912F
:101A70006F915F914F913F912F910F900BBE0F90FF
:101A80000FBE0F901F9018951F920F920FB60F92D6
:101A900011240BB60F922F938F939F93EF93FF9385
:101AA000E0918806F09189068081E0918E06F091A0
:101AB0008F0682FD1DC09081809191068F5F8F738C
:101AC00020919206821741F0E0919106F0E0E858EB
:101AD000F94F958F80939106FF91EF919F918F9190
:101AE0002F910F900BBE0F900FBE0F901F90189567
:101AF0008081F2CF1F920F920FB60F9211242F9375
:101B00003F938F939F93AF93BF9380916105909183
:101B10006205A0916305B09164053091600523E0F2
:101B2000230F2D3758F50196A11DB11D2093600597
:101B30008093610590936205A0936305B09364055B
:101B400080915C0590915D05A0915E05B0915F0567
:101B50000196A11DB11D80935C0590935D05A09336
:101B60005E05B0935F05BF91AF919F918F913F91BB
:101B70002F910F900FBE0F901F90189526E8230FFE
:101B80000296A11DB11DD2CF1F920F920FB60F92D8
:101B900011240BB60F922F933F934F935F936F9344
:101BA0007F938F939F93AF93BF93EF93FF93E091B6
:101BB0001202F09113021995FF91EF91BF91AF912D
:101BC0009F918F917F916F915F914F913F912F9155
:101BD0000F900BBE0F900FBE0F901F9018951F9285
:101BE0000F920FB60F9211240BB60F922F933F93C3
:101BF0004F935F936F937F938F939F93AF93BF9315
:101C0000EF93FF93E0911002F09111021995FF916B
:101C1000EF91BF91AF919F918F917F916F915F9164
:101C20004F913F912F910F900BBE0F900FBE0F90D1
:101C30001F9018951F920F920FB60F9211240BB69A
:101C40000F922F933F934F935F936F937F938F9355
:101C50009F93AF93BF93EF93FF93E0910602F091B0
:101C600007021995FF91EF91BF91AF919F918F91CD
:101C70007F916F915F914F913F912F910F900BBE8C
:101C80000F900FBE0F901F9018951F920F920FB6D6
:101C90000F9211240BB60F922F933F934F935F93A4
:101CA0006F937F938F939F93AF93BF93EF93FF9324
:101CB000E0910402F09105021995FF91EF91BF9117
:101CC000AF919F918F917F916F915F914F913F91D4
:101CD0002F910F900BBE0F900FBE0F901F90189575
:101CE0001F920F920FB60F9211240BB60F922F93E3
:101CF0003F934F935F936F937F938F939F93AF9394
:101D0000BF93EF93FF93E0910E02F0910F021995AC
:101D1000FF91EF91BF91AF919F918F917F916F91C3
:101D20005F914F913F912F910F900BBE0F900FBE7F
:101D30000F901F9018951F920F920FB60F921124BB
:101D40000BB60F922F933F934F935F936F937F93B5
:101D50008F939F93AF93BF93EF93FF93E0910C0208
:101D6000F0910D021995FF91EF91BF91AF919F9165
:101D70008F917F916F915F914F913F912F910F9034
:101D80000BBE0F900FBE0F901F9018951F920F92D1
:101D90000FB60F9211240BB60F922F933F934F93D0
:101DA0005F936F937F938F939F93AF93BF93EF93C3
:101DB000FF93E0910A02F0910B021995FF91EF91C8
:101DC000BF91AF919F918F917F916F915F914F9153
:101DD0003F912F910F900BBE0F900FBE0F901F9051
:101DE00018951F920F920FB60F9211240BB60F92F7
:101DF0002F933F934F935F936F937F938F939F9313
:101E0000AF93BF93EF93FF93E0910802F091090223
:101E10001995FF91EF91BF91AF919F918F917F9114
:101E20006F915F914F913F912F910F900BBE0F904B
:101E30000FBE0F901F901895CF92DF92EF92FF92F6
:101E40000F931F93E82FF92F05C0015011092109A5
:101E5000310961F1908196239417B9F305C00150BF
:101E600011092109310911F1908196239413F7CFBB
:101E7000C12CD12CE12CF12C0AC08FEFC81AD80A42
:101E8000E80AF80A0C151D052E053F0579F080813A
:101E90008623841791F36C2D7D2D8E2D9F2D1F9100
:101EA0000F91FF90EF90DF90CF90089560E070E089
:101EB00080E090E01F910F91FF90EF90DF90CF9026
:101EC0000895CF93DF9300D000D01F921F92CDB71B
:101ED000DEB7789484B5826084BD84B5816084BDAA
:101EE00085B5826085BD85B5816085BD80916E00B8
:101EF000816080936E0010928100809181008260E9
:101F00008093810080918100816080938100809125
:101F100080008160809380008091B1008460809314
:101F2000B1008091B00081608093B00080919100F9
:101F300082608093910080919100816080939100F4
:101F4000809190008160809390008091A1008260D8
:101F50008093A1008091A10081608093A100809175
:101F6000A00081608093A000809121018260809315
:101F700021018091210181608093210180912001C4
:101F800081608093200180917A00846080937A0040
:101F900080917A00826080937A0080917A008160DB
:101FA00080937A0080917A00806880937A00109202
:101FB000C100E0918806F091890682E08083E0917B
:101FC0008406F09185061082E0918606F0918706DE
:101FD0008FEC808310929006E0918C06F0918D0634
:101FE00086E08083E0918A06F0918B068081806193
:101FF0008083E0918A06F0918B06808188608083DF
:10200000E0918A06F0918B06808180688083E09160
:102010008A06F0918B0680818F7D808361E086E364
:102020000E94910360E086E30E94050360E087E37D
:102030000E94910362E082E00E94910361E087E0E8
:102040000E94910361E086E00E94910361E08AE0D2
:102050000E94910361E085E00E94910361E084E0C9
:102060000E94910361E089E00E9491030E949D011A
:1020700070E060E08AE00E94CD0360E087E00E94AB
:10208000050360E086E00E94050370E060E089E0FF
:102090000E94CD0360E085E00E94050360E084E0DB
:1020A0000E94050388E290E09093660580936505A1
:1020B00080E041E050E090E0282F290FE22FE695E4
:1020C000E695E695F0E0EF5BF94F2770BA0101C0A5
:1020D000660F2A95EAF72081262B20839F5F943193
:1020E00059F78C5E803939F780913806909139061E
:1020F00088279C7F9093390680933806B4E12B2E75
:10210000312CEFE6F5E01192A7E3EA2EA6E0FA2ED5
:10211000EE16FF06C1F78BE093E00E948C078091DA
:10212000410683FB882780F989831A8209811A81F5
:10213000B80190E080E04AE00E9448078CE292E01B
:102140000E943B0760E086E30E94050383E090E085
:102150000197F1F761E086E30E94050383E290E0D6
:102160000197F1F760E086E30E940503E3ECF2E0FB
:102170006491EDE7F2E08491E82FF0E0EE0FFF1FAD
:10218000E45DFD4F8591949100E412E42FE030E08E
:10219000462F0E941C0F611571058105910529F0DC
:1021A0006F5F7F4F8F4F9F4F9F700E9460150E94FF
:1021B0002A15072E000C880B990B0E94621528E245
:1021C0003EE74CE05DE30E94561620E030E040E040
:1021D0005FE30E9456166B017C01C0926B05D092A2
:1021E0006C05E0926D05F0926E0520E030E048E469
:1021F00052E40E94511618160CF0AEC0E12CF12CDE
:1022000000E81FEBE0926B05F0926C0500936D0502
:1022100010936E0588E393E00E948C07C0906B05D5
:10222000D0906C05E0906D05F0906E05A7019601C9
:10223000C701B6010E94CB16882309F467C182E466
:1022400093E00E943B078CE292E00E943B07809162
:102250003D0690913E0688279C7F896690933E06B6
:1022600080933D068EE493E00E948C0780913806AF
:10227000909139069370B1010E941917CB010E9409
:102280001D0888E593E00E948C07809138069091A4
:1022900039069370B1010E9419170E941D088DE242
:1022A00092E00E948C0780E693E00E948C07809168
:1022B0003D0690913E069370B1010E941917CB0123
:1022C0000E941D0888E593E00E948C0780913D06DE
:1022D00090913E069370B1010E9419170E941D084B
:1022E0008DE292E00E948C07E0903C06F0903D0663
:1022F00000913E0610913F0620914006409137061E
:10230000509138066091390670913A0680913B06EB
:102310000E9486088AE693E00E948C070FE615E08B
:102320001C830B83AFE6B5E00D900020E9F7CD01EB
:10233000805795402B813C812F563540281739070F
:1023400008F076C1EB81FC816191FC83EB8388E727
:1023500096E00E946702E6CF20E030E040EA50E4D9
:10236000C701B6010E94B8140E942A159B01409132
:102370000202509103024130510509F4B9C00CF03A
:1023800098C0452B09F4A5C02F3F3F4F09F442CF19
:102390002091380630913906337038872F83072E05
:1023A000000C880B990B0E9462156B017C01409018
:1023B0006705509068056090690570906A05C301D3
:1023C000B2010E94B3146B837C838D839E838F81C3
:1023D0009885B1010E94191798878F83072E000CEA
:1023E000880B990B0E9462154B015C012B813C818B
:1023F0004D815E81C701B6010E9456169B01AC015A
:10240000C501B4010E9442140E942A158B01C30128
:10241000B20190580E94C3162B013C0117FDFACE61
:10242000AF81B885BD01BB0F880B990B0E94621567
:102430004B015C01A3019201C701B6010E9456162F
:102440009B01AC01C501B4010E9442140E942A15EF
:102450006B837F8377FDDECE80E293E00E948C0762
:10246000C8010E941D0886E393E00E948C078B81BF
:102470009F810E941D088CE292E00E943B07EB8046
:10248000B4E10B9FE00C1124EE2DE695E695E69560
:10249000F0E0EF5BF94F0E2D07700B8381E090E0C9
:1024A00001C0880F0A95EAF780959081892380837F
:1024B000B1CE4230510519F14330510509F064CFD6
:1024C00010926705109268051092690510926A05CE
:1024D0005BCF15E2E12E16E0F12E09EC1FEBE09246
:1024E0006705F09268050093690510936A054CCF63
:1024F00015E2E12E16E0F12E09E410E4F0CF15E22A
:10250000E12E16E0F12E09EC1FE3E9CF4601570159
:10251000E894B7F82FEF3FEF4FE75FE7C501B4014D
:102520000E94CB1681110DC02FEF3FEF4FE75FE701
:10253000C501B4010E94AE1418161CF486E493E0A1
:1025400080CE2FEF3FEF4FE75FE4C701B6010E9457
:10255000511618161CF48AE493E073CE2FEF3FEF68
:102560004FE75FECC701B6010E94AE1487FDF3CFC1
:1025700020E030E0A901C701B6010E94AE1487FF38
:1025800009C06DE288E796E00E946702F7FAF094CE
:10259000F7F8F0942AE037ED43EA5BE3C701B601B0
:1025A0000E9442144B015C010E9431156B017C01B9
:1025B0000E9460159B01AC01C501B4010E94411449
:1025C0004B015C014AE0C701B6010E9448076EE278
:1025D00088E796E00E94670220E030E040E251E4A4
:1025E000C501B4010E9456164B015C010E943115D1
:1025F0006B01F12CE12C4AE0C701B6010E944807AB
:10260000C701B6010E9460159B01AC01C501B40170
:102610000E94411420E030E040E251E40E9456164E
:102620000E94311590E080E04AE00E9448070BCEFE
:102630008CE793E00E948E0784E893E00E948E0767
:1026400084EF91E00E94140780916F058535F1F5C4
:102650008091020290910302009729F584E690E0B0
:102660000E9414070E94AA0784E690E00E941407C3
:102670000E94B807EE24E394F12CF0920302E0925A
:10268000020280913806909139069370B1010E9440
:10269000191761507109AC0187E396E00E940107A8
:1026A0000E94D4022ECD81309105F1F2029739F4C7
:1026B00084E690E00E9414070E949C07D5CF84E630
:1026C00090E00E9414070E949C07F2CF823591F59A
:1026D00080910202909103020097B1F480ED97E09F
:1026E0000E9414070E94B80710920302109202027F
:1026F00080913806909139069370B1010E941917A4
:10270000AC014F5F5F4FC8CF8130910539F480ED48
:1027100097E00E9414070E949C07E0CF029739F4CB
:1027200080ED97E00E9414070E949C07F0CF0E9462
:10273000AA07D4CF8434B1F58091020290910302AC
:102740000097E9F480ED97E00E9414070E949C072F
:1027500080ED97E00E9414070E94B80703E010E0A4
:10276000109303020093020280913806909139067B
:102770009370B1010E9419176F5F7F4F8CCF81302A
:10278000910539F480ED97E00E9414070E949C07A0
:10279000D9CF0297E9F680ED97E00E9414070E94D6
:1027A000AA07D6CF8C3409F07BCF8091020290919A
:1027B0000302009721F580ED97E00E9414070E9424
:1027C0009C0780ED97E00E9414070E949C0780ED13
:1027D00097E00E9414070E94B80722E030E030938F
:1027E000030220930202809138069091390693707B
:1027F000B1010E941917AC01415051094DCF8130F0
:10280000910539F480ED97E00E9414070E94AA0711
:10281000DECF0297E1F284E690E00E9414070E9466
:102820009C0784E690E0D5CFE8E7F6E013821282B9
:1028300088EE93E0A0E0B0E084839583A683B7831D
:102840008EE192E09183808385EC90E09587848788
:1028500084EC90E09787868780EC90E0918B808B6A
:1028600081EC90E0938B828B82EC90E0958B848B53
:1028700086EC90E0978B868B118E128E138E148EC1
:1028800008955058BB27AA270E9459140C94031688
:102890000E94CA1538F00E94D11520F039F49F3FEC
:1028A00019F426F40C94C7150EF4E095E7FB0C948C
:1028B000C115E92F0E94281658F3BA17620773074B
:1028C0008407950720F079F4A6F50C944A160EF4C7
:1028D000E0950B2EBA2FA02D0B01B90190010C0130
:1028E000CA01A0011124FF27591B99F0593F50F448
:1028F000503E68F11A16F040A22F232F342F4427A0
:10290000585FF3CF469537952795A795F040539597
:10291000C9F77EF41F16BA0B620B730B840BBAF067
:102920009150A1F0FF0FBB1F661F771F881FC2F7D2
:102930000EC0BA0F621F731F841F48F487957795E6
:102940006795B795F7959E3F08F0B0CF9395880FA0
:1029500008F09927EE0F9795879508950E949D1589
:1029600008F481E008950E94DA15E3950C9414169A
:102970000E94CC140C9403160E94D11558F00E94AA
:10298000CA1540F029F45F3F29F00C94C11551118C
:102990000C944B160C94C7150E94281668F39923C3
:1029A000B1F3552391F3951B550BBB27AA2762174B
:1029B0007307840738F09F5F5F4F220F331F441F58
:1029C000AA1FA9F335D00E2E3AF0E0E832D091508C
:1029D0005040E695001CCAF72BD0FE2F29D0660F79
:1029E000771F881FBB1F261737074807AB07B0E8BC
:1029F00009F0BB0B802DBF01FF2793585F4F3AF0C2
:102A00009E3F510578F00C94C1150C944B165F3F16
:102A1000E4F3983ED4F3869577956795B795F79547
:102A20009F5FC9F7880F911D9695879597F908952F
:102A3000E1E0660F771F881FBB1F621773078407CB
:102A4000BA0720F0621B730B840BBA0BEE1F88F7DA
:102A5000E09508950E9431156894B1110C944B16BD
:102A600008950E94301688F09F5798F0B92F992743
:102A7000B751B0F0E1F0660F771F881F991F1AF069
:102A8000BA95C9F714C0B13091F00E944A16B1E06E
:102A900008950C944A16672F782F8827B85F39F06D
:102AA000B93FCCF3869577956795B395D9F73EF402
:102AB00090958095709561957F4F8F4F9F4F0895AA
:102AC000E89409C097FB3EF49095809570956195C8
:102AD0007F4F8F4F9F4F9923A9F0F92F96E9BB277E
:102AE0009395F695879577956795B795F111F8CFFA
:102AF000FAF4BB0F11F460FF1BC06F5F7F4F8F4F65
:102B00009F4F16C0882311F096E911C0772321F05A
:102B10009EE8872F762F05C0662371F096E8862FF2
:102B200070E060E02AF09A95660F771F881FDAF749
:102B3000880F9695879597F90895990F0008550F76
:102B4000AA0BE0E8FEEF16161706E807F907C0F033
:102B500012161306E407F50798F0621B730B840B3B
:102B6000950B39F40A2661F0232B242B252B21F415
:102B700008950A2609F4A140A6958FEF811D811DB5
:102B8000089597F99F6780E870E060E008959FEFEF
:102B900080EC089500240A941616170618060906F4
:102BA000089500240A9412161306140605060895C3
:102BB0000C94C7150E943016D8F3E894E0E0BB27C8
:102BC0009F57F0F02AED3FE049EC06C0EE0FBB0F37
:102BD000661F771F881F28F0B23A620773078407C1
:102BE00028F0B25A620B730B840BE3959A9572F737
:102BF000803830F49A95BB0F661F771F881FD2F775
:102C000090480C94D216092E0394000C11F48823DA
:102C100052F0BB0F40F4BF2B11F460FF04C06F5F94
:102C20007F4F8F4F9F4F0895EF93E0FF07C0A2EAB9
:102C30002AED3FE049EC5FEB0E9459140E94031615
:102C40000F90039401FC9058E4EEF0E00C94DE1633
:102C500057FD9058440F551F59F05F3F71F047954D
:102C6000880F97FB991F61F09F3F79F08795089532
:102C7000121613061406551FF2CF4695F1DF08C051
:102C8000161617061806991FF1CF8695710561056E
:102C900008940895E894BB2766277727CB0197F916
:102CA00008950E949D1508F48FEF08950E946916FB
:102CB0000C9403160E94CA1538F00E94D11520F01A
:102CC000952311F00C94C1150C94C71511240C9484
:102CD0004B160E94281670F3959FC1F3950F50E094
:102CE000551F629FF001729FBB27F00DB11D639FBE
:102CF000AA27F00DB11DAA1F649F6627B00DA11D64
:102D0000661F829F2227B00DA11D621F739FB00D09
:102D1000A11D621F839FA00D611D221F749F332779
:102D2000A00D611D231F849F600D211D822F762F12
:102D30006A2F11249F5750409AF0F1F088234AF0EF
:102D4000EE0FFF1FBB1F661F771F881F915050405B
:102D5000A9F79E3F510580F00C94C1150C944B16B9
:102D60005F3FE4F3983ED4F3869577956795B795E2
:102D7000F795E7959F5FC1F7FE2B880F911D9695FC
:102D8000879597F908959F930E94DA150F9007FC95
:102D9000EE5F0C9414160E949D15880B990B0895F4
:102DA0009F3F31F0915020F4879577956795B795BF
:102DB000880F911D9695879597F908959F938F9306
:102DC0007F936F93FF93EF939B01AC010E94561684
:102DD000EF91FF910E94F2162F913F914F915F91D9
:102DE0000C945616DF93CF931F930F93FF92EF929D
:102DF000DF927B018C01689406C0DA2EEF010E94FD
:102E00006916FE01E894A59125913591459155915A
:102E1000A6F3EF010E945914FE019701A801DA946C
:102E200069F7DF90EF90FF900F911F91CF91DF91A5
:102E30000895AA1BBB1B51E107C0AA1FBB1FA61701
:102E4000B70710F0A61BB70B881F991F5A95A9F753
:102E500080959095BC01CD010895A1E21A2EAA1B80
:102E6000BB1BFD010DC0AA1FBB1FEE1FFF1FA2173A
:102E7000B307E407F50720F0A21BB30BE40BF50B37
:102E8000661F771F881F991F1A9469F760957095C0
:102E9000809590959B01AC01BD01CF010895EE0F87
:102EA000FF1F881F8BBF0790F691E02D19940F9399
:102EB0001F93CF93DF93869F8001879F100D969F6E
:102EC000100D1124C8010E947317EC01009729F01E
:102ED000A80170E060E00E949818CE01DF91CF91C8
:102EE0001F910F9108950F931F93CF93DF9382301B
:102EF000910510F482E090E0E0911707F091180737
:102F000030E020E0B0E0A0E0309799F421153105E1
:102F100009F44AC0281B390B24303105D8F58A81C1
:102F20009B816115710589F1FB0193838283FE0109
:102F300011C0408151810281138148175907E0F087
:102F40004817590799F4109761F012960C9312974D
:102F500013961C933296CF01DF91CF911F910F9161
:102F600008950093170710931807F4CF2115310522
:102F700051F04217530738F0A901DB019A01BD0156
:102F8000DF01F801C1CFEF01F9CF909318078093CB
:102F90001707CDCFFE01E20FF31F819391932250CB
:102FA000310939832883D7CF20911507309116072F
:102FB000232B41F42091160230911702309316070B
:102FC0002093150720911402309115022115310527
:102FD00041F42DB73EB74091180250911902241BBD
:102FE000350BE0911507F0911607E217F307A0F4EF
:102FF0002E1B3F0B2817390778F0AC014E5F5F4F4F
:103000002417350748F04E0F5F1F50931607409363
:103010001507819391939FCFF0E0E0E09CCFCF9391
:10302000DF930097E9F0FC01329713821282A0919E
:103030001707B0911807ED0130E020E01097A1F4D8
:1030400020813181820F931F20911507309116073F
:103050002817390709F061C0F0931607E0931507A8
:10306000DF91CF910895EA01CE17DF07E8F54A8195
:103070005B819E0141155105B1F7E901FB83EA83AC
:1030800049915991C40FD51FEC17FD0761F4808158
:1030900091810296840F951FE9019983888382812B
:1030A00093819B838A83F0E0E0E012968D919C915E
:1030B00013970097B9F52D913C911197CD01029688
:1030C000820F931F20911507309116072817390793
:1030D00039F6309751F51092180710921707B093F0
:1030E0001607A0931507BCCFD383C28340815181BB
:1030F000840F951FC817D90761F44E5F5F4F888111
:103100009981480F591F518340838A819B81938302
:1031100082832115310509F0B0CFF0931807E093B1
:1031200017079ECFFD01DC01C0CF13821282D7CFDB
:10313000DC0101C06D9341505040E0F70895F894D0
:02314000FFCFBF
:10314200FFFF0300D001D001D001D001D001D00196
:10315200D001D001000019078000000000006702C2
:10316200D101FE01B4022F020D0221020D0A004D0F
:103172004F56494E47205249474854204E4F570018
:103182004D4F56494E47204C454654204E4F57000E
:103192004D4F56494E4720464F5257415244204EBA
:1031A2004F5700536F75726365206F7220646573A9
:1031B2007420697320696E76616C69640A00536FCA
:1031C20075726365206F722074686520646573741C
:1031D200696E6174696F6E20697320626C6F636BD4
:1031E20065640A0057652061726520616C726561D1
:1031F2006479206174207468652064657374696EF3
:103202006174696F6E0A005468652064657374693D
:103212006E6174696F6E2063656C6C2069732066E1
:103222006F756E640A004661696C656420746F2074
:1032320066696E64207468652044657374696E61A2
:1032420074696F6E2043656C6C0A0056616C75651B
:10325200206F6628302C33292028792C78293D00CC
:1032620057726974696E67206E6F772061742028C7
:10327200782C79293D002C0064697374616E636552
:103282003D006E616E00696E66006F766600537275
:1032920063202D2D3E2009002020202C20202000FC
:1032A200446573742D2D3E200900546865207061B9
:1032B2007468206973202D2D3E2020000A446F6E11
:1032C20065200A004C45542773204D4F4F4F4F56EF
:0432D2004520000093
:00000001FF
